{
  "contractName": "ServiceRequest",
  "abi": [
    {
      "constant": true,
      "inputs": [
        {
          "name": "",
          "type": "address"
        }
      ],
      "name": "balances",
      "outputs": [
        {
          "name": "",
          "type": "uint256"
        }
      ],
      "payable": false,
      "stateMutability": "view",
      "type": "function"
    },
    {
      "constant": true,
      "inputs": [],
      "name": "nextRequestId",
      "outputs": [
        {
          "name": "",
          "type": "uint256"
        }
      ],
      "payable": false,
      "stateMutability": "view",
      "type": "function"
    },
    {
      "constant": true,
      "inputs": [
        {
          "name": "",
          "type": "uint256"
        }
      ],
      "name": "requests",
      "outputs": [
        {
          "name": "requestId",
          "type": "uint256"
        },
        {
          "name": "requester",
          "type": "address"
        },
        {
          "name": "totalFund",
          "type": "uint256"
        },
        {
          "name": "documentURI",
          "type": "bytes"
        },
        {
          "name": "expiration",
          "type": "uint256"
        },
        {
          "name": "endSubmission",
          "type": "uint256"
        },
        {
          "name": "endEvaluation",
          "type": "uint256"
        },
        {
          "name": "status",
          "type": "uint8"
        }
      ],
      "payable": false,
      "stateMutability": "view",
      "type": "function"
    },
    {
      "constant": true,
      "inputs": [
        {
          "name": "",
          "type": "address"
        }
      ],
      "name": "foundationMembers",
      "outputs": [
        {
          "name": "role",
          "type": "uint256"
        },
        {
          "name": "status",
          "type": "bool"
        },
        {
          "name": "exists",
          "type": "bool"
        }
      ],
      "payable": false,
      "stateMutability": "view",
      "type": "function"
    },
    {
      "constant": true,
      "inputs": [],
      "name": "token",
      "outputs": [
        {
          "name": "",
          "type": "address"
        }
      ],
      "payable": false,
      "stateMutability": "view",
      "type": "function"
    },
    {
      "inputs": [
        {
          "name": "_token",
          "type": "address"
        },
        {
          "name": "_minStake",
          "type": "uint256"
        },
        {
          "name": "_maxStakers",
          "type": "uint256"
        }
      ],
      "payable": false,
      "stateMutability": "nonpayable",
      "type": "constructor"
    },
    {
      "anonymous": false,
      "inputs": [
        {
          "indexed": true,
          "name": "member",
          "type": "address"
        },
        {
          "indexed": false,
          "name": "role",
          "type": "uint256"
        },
        {
          "indexed": false,
          "name": "status",
          "type": "bool"
        },
        {
          "indexed": true,
          "name": "actor",
          "type": "address"
        }
      ],
      "name": "AddFoundationMember",
      "type": "event"
    },
    {
      "anonymous": false,
      "inputs": [
        {
          "indexed": false,
          "name": "requestId",
          "type": "uint256"
        },
        {
          "indexed": true,
          "name": "requester",
          "type": "address"
        },
        {
          "indexed": false,
          "name": "expiration",
          "type": "uint256"
        },
        {
          "indexed": false,
          "name": "amount",
          "type": "uint256"
        },
        {
          "indexed": false,
          "name": "documentURI",
          "type": "bytes"
        }
      ],
      "name": "CreateRequest",
      "type": "event"
    },
    {
      "anonymous": false,
      "inputs": [
        {
          "indexed": true,
          "name": "requestId",
          "type": "uint256"
        },
        {
          "indexed": true,
          "name": "requester",
          "type": "address"
        },
        {
          "indexed": false,
          "name": "expiration",
          "type": "uint256"
        }
      ],
      "name": "ExtendRequest",
      "type": "event"
    },
    {
      "anonymous": false,
      "inputs": [
        {
          "indexed": true,
          "name": "requestId",
          "type": "uint256"
        },
        {
          "indexed": true,
          "name": "approver",
          "type": "address"
        },
        {
          "indexed": false,
          "name": "endSubmission",
          "type": "uint256"
        },
        {
          "indexed": false,
          "name": "endEvaluation",
          "type": "uint256"
        },
        {
          "indexed": false,
          "name": "expiration",
          "type": "uint256"
        }
      ],
      "name": "ApproveRequest",
      "type": "event"
    },
    {
      "anonymous": false,
      "inputs": [
        {
          "indexed": true,
          "name": "requestId",
          "type": "uint256"
        },
        {
          "indexed": true,
          "name": "staker",
          "type": "address"
        },
        {
          "indexed": false,
          "name": "amount",
          "type": "uint256"
        }
      ],
      "name": "FundRequest",
      "type": "event"
    },
    {
      "anonymous": false,
      "inputs": [
        {
          "indexed": true,
          "name": "requestId",
          "type": "uint256"
        },
        {
          "indexed": true,
          "name": "submitter",
          "type": "address"
        },
        {
          "indexed": false,
          "name": "solutionDocURI",
          "type": "bytes"
        }
      ],
      "name": "AddSolutionRequest",
      "type": "event"
    },
    {
      "anonymous": false,
      "inputs": [
        {
          "indexed": true,
          "name": "requestId",
          "type": "uint256"
        },
        {
          "indexed": true,
          "name": "voter",
          "type": "address"
        },
        {
          "indexed": true,
          "name": "submitter",
          "type": "address"
        }
      ],
      "name": "VoteRequest",
      "type": "event"
    },
    {
      "anonymous": false,
      "inputs": [
        {
          "indexed": true,
          "name": "requestId",
          "type": "uint256"
        },
        {
          "indexed": true,
          "name": "submitter",
          "type": "address"
        },
        {
          "indexed": false,
          "name": "amount",
          "type": "uint256"
        }
      ],
      "name": "ClaimRequest",
      "type": "event"
    },
    {
      "anonymous": false,
      "inputs": [
        {
          "indexed": true,
          "name": "requestId",
          "type": "uint256"
        },
        {
          "indexed": true,
          "name": "actor",
          "type": "address"
        }
      ],
      "name": "CloseRequest",
      "type": "event"
    },
    {
      "anonymous": false,
      "inputs": [
        {
          "indexed": true,
          "name": "requestId",
          "type": "uint256"
        },
        {
          "indexed": true,
          "name": "actor",
          "type": "address"
        }
      ],
      "name": "RejectRequest",
      "type": "event"
    },
    {
      "constant": false,
      "inputs": [
        {
          "name": "value",
          "type": "uint256"
        }
      ],
      "name": "deposit",
      "outputs": [
        {
          "name": "",
          "type": "bool"
        }
      ],
      "payable": false,
      "stateMutability": "nonpayable",
      "type": "function"
    },
    {
      "constant": false,
      "inputs": [
        {
          "name": "value",
          "type": "uint256"
        }
      ],
      "name": "withdraw",
      "outputs": [
        {
          "name": "",
          "type": "bool"
        }
      ],
      "payable": false,
      "stateMutability": "nonpayable",
      "type": "function"
    },
    {
      "constant": false,
      "inputs": [
        {
          "name": "newOwner",
          "type": "address"
        }
      ],
      "name": "updateOwner",
      "outputs": [
        {
          "name": "",
          "type": "bool"
        }
      ],
      "payable": false,
      "stateMutability": "nonpayable",
      "type": "function"
    },
    {
      "constant": false,
      "inputs": [
        {
          "name": "_minStake",
          "type": "uint256"
        },
        {
          "name": "_maxStakers",
          "type": "uint256"
        }
      ],
      "name": "updateLimits",
      "outputs": [
        {
          "name": "",
          "type": "bool"
        }
      ],
      "payable": false,
      "stateMutability": "nonpayable",
      "type": "function"
    },
    {
      "constant": false,
      "inputs": [
        {
          "name": "member",
          "type": "address"
        },
        {
          "name": "role",
          "type": "uint256"
        },
        {
          "name": "active",
          "type": "bool"
        }
      ],
      "name": "addOrUpdateFoundationMembers",
      "outputs": [
        {
          "name": "",
          "type": "bool"
        }
      ],
      "payable": false,
      "stateMutability": "nonpayable",
      "type": "function"
    },
    {
      "constant": false,
      "inputs": [
        {
          "name": "value",
          "type": "uint256"
        },
        {
          "name": "expiration",
          "type": "uint256"
        },
        {
          "name": "documentURI",
          "type": "bytes"
        }
      ],
      "name": "createRequest",
      "outputs": [
        {
          "name": "",
          "type": "bool"
        }
      ],
      "payable": false,
      "stateMutability": "nonpayable",
      "type": "function"
    },
    {
      "constant": false,
      "inputs": [
        {
          "name": "value",
          "type": "uint256"
        },
        {
          "name": "expiration",
          "type": "uint256"
        },
        {
          "name": "documentURI",
          "type": "bytes"
        }
      ],
      "name": "depositAndCreateRequest",
      "outputs": [
        {
          "name": "",
          "type": "bool"
        }
      ],
      "payable": false,
      "stateMutability": "nonpayable",
      "type": "function"
    },
    {
      "constant": false,
      "inputs": [
        {
          "name": "requestId",
          "type": "uint256"
        },
        {
          "name": "newExpiration",
          "type": "uint256"
        }
      ],
      "name": "extendRequest",
      "outputs": [
        {
          "name": "",
          "type": "bool"
        }
      ],
      "payable": false,
      "stateMutability": "nonpayable",
      "type": "function"
    },
    {
      "constant": false,
      "inputs": [
        {
          "name": "requestId",
          "type": "uint256"
        },
        {
          "name": "amount",
          "type": "uint256"
        }
      ],
      "name": "addFundsToRequest",
      "outputs": [
        {
          "name": "",
          "type": "bool"
        }
      ],
      "payable": false,
      "stateMutability": "nonpayable",
      "type": "function"
    },
    {
      "constant": false,
      "inputs": [
        {
          "name": "requestId",
          "type": "uint256"
        },
        {
          "name": "newExpiration",
          "type": "uint256"
        },
        {
          "name": "amount",
          "type": "uint256"
        }
      ],
      "name": "extendAndAddFundsToRequest",
      "outputs": [],
      "payable": false,
      "stateMutability": "nonpayable",
      "type": "function"
    },
    {
      "constant": false,
      "inputs": [
        {
          "name": "requestId",
          "type": "uint256"
        },
        {
          "name": "endSubmission",
          "type": "uint256"
        },
        {
          "name": "endEvaluation",
          "type": "uint256"
        },
        {
          "name": "newExpiration",
          "type": "uint256"
        }
      ],
      "name": "approveRequest",
      "outputs": [
        {
          "name": "",
          "type": "bool"
        }
      ],
      "payable": false,
      "stateMutability": "nonpayable",
      "type": "function"
    },
    {
      "constant": false,
      "inputs": [
        {
          "name": "requestId",
          "type": "uint256"
        }
      ],
      "name": "rejectRequest",
      "outputs": [
        {
          "name": "",
          "type": "bool"
        }
      ],
      "payable": false,
      "stateMutability": "nonpayable",
      "type": "function"
    },
    {
      "constant": false,
      "inputs": [
        {
          "name": "requestId",
          "type": "uint256"
        }
      ],
      "name": "closeRequest",
      "outputs": [
        {
          "name": "",
          "type": "bool"
        }
      ],
      "payable": false,
      "stateMutability": "nonpayable",
      "type": "function"
    },
    {
      "constant": false,
      "inputs": [
        {
          "name": "requestId",
          "type": "uint256"
        },
        {
          "name": "solutionDocURI",
          "type": "bytes"
        }
      ],
      "name": "createOrUpdateSolutionProposal",
      "outputs": [
        {
          "name": "",
          "type": "bool"
        }
      ],
      "payable": false,
      "stateMutability": "nonpayable",
      "type": "function"
    },
    {
      "constant": false,
      "inputs": [
        {
          "name": "requestId",
          "type": "uint256"
        },
        {
          "name": "solutionSubmitter",
          "type": "address"
        }
      ],
      "name": "vote",
      "outputs": [
        {
          "name": "",
          "type": "bool"
        }
      ],
      "payable": false,
      "stateMutability": "nonpayable",
      "type": "function"
    },
    {
      "constant": false,
      "inputs": [
        {
          "name": "requestId",
          "type": "uint256"
        }
      ],
      "name": "requestClaimBack",
      "outputs": [
        {
          "name": "",
          "type": "bool"
        }
      ],
      "payable": false,
      "stateMutability": "nonpayable",
      "type": "function"
    },
    {
      "constant": false,
      "inputs": [
        {
          "name": "requestId",
          "type": "uint256"
        }
      ],
      "name": "requestClaim",
      "outputs": [
        {
          "name": "",
          "type": "bool"
        }
      ],
      "payable": false,
      "stateMutability": "nonpayable",
      "type": "function"
    }
  ],
  "bytecode": "0x608060405234801561001057600080fd5b50604051606080613dc783398101806040528101908080519060200190929190805190602001909291908051906020019092919050505082600860006101000a81548173ffffffffffffffffffffffffffffffffffffffff021916908373ffffffffffffffffffffffffffffffffffffffff16021790555033600560006101000a81548173ffffffffffffffffffffffffffffffffffffffff021916908373ffffffffffffffffffffffffffffffffffffffff160217905550600080819055508160038190555080600481905550505050613cd7806100f06000396000f300608060405260043610610128576000357c0100000000000000000000000000000000000000000000000000000000900463ffffffff16806302d947ef1461012d5780630eaa47671461019257806327e235e3146101f55780632d7788db1461024c5780632e1a7d4d1461029157806339fe7e21146102d65780633c3ff3ef1461036b5780636a84a985146103ba5780637b731f73146103e557806381d12c581461042a578063880cdc311461053b578063a2240e1914610596578063a7e5c8f0146105e5578063ac6a08de14610656578063b33bb6a5146106c3578063b6b55f251461074e578063b72f5bf414610793578063e00b288a146107d4578063f0282b7f14610819578063f8a880aa1461085e578063fc0c546a146108f3578063fe444e561461094a575b600080fd5b34801561013957600080fd5b5061017860048036038101908080359060200190929190803573ffffffffffffffffffffffffffffffffffffffff169060200190929190505050610999565b604051808215151515815260200191505060405180910390f35b34801561019e57600080fd5b506101db60048036038101908080359060200190929190803590602001909291908035906020019092919080359060200190929190505050610c67565b604051808215151515815260200191505060405180910390f35b34801561020157600080fd5b50610236600480360381019080803573ffffffffffffffffffffffffffffffffffffffff169060200190929190505050610de6565b6040518082815260200191505060405180910390f35b34801561025857600080fd5b5061027760048036038101908080359060200190929190505050610dfe565b604051808215151515815260200191505060405180910390f35b34801561029d57600080fd5b506102bc60048036038101908080359060200190929190505050610f1a565b604051808215151515815260200191505060405180910390f35b3480156102e257600080fd5b506103516004803603810190808035906020019092919080359060200190929190803590602001908201803590602001908080601f0160208091040260200160405190810160405280939291908181526020018383808284378201915050505050509192919290505050611113565b604051808215151515815260200191505060405180910390f35b34801561037757600080fd5b506103a060048036038101908080359060200190929190803590602001909291905050506115de565b604051808215151515815260200191505060405180910390f35b3480156103c657600080fd5b506103cf6119ff565b6040518082815260200191505060405180910390f35b3480156103f157600080fd5b5061041060048036038101908080359060200190929190505050611a05565b604051808215151515815260200191505060405180910390f35b34801561043657600080fd5b5061045560048036038101908080359060200190929190505050611caf565b604051808981526020018873ffffffffffffffffffffffffffffffffffffffff1673ffffffffffffffffffffffffffffffffffffffff168152602001878152602001806020018681526020018581526020018481526020018360048111156104b957fe5b60ff168152602001828103825287818151815260200191508051906020019080838360005b838110156104f95780820151818401526020810190506104de565b50505050905090810190601f1680156105265780820380516001836020036101000a031916815260200191505b50995050505050505050505060405180910390f35b34801561054757600080fd5b5061057c600480360381019080803573ffffffffffffffffffffffffffffffffffffffff169060200190929190505050611dbc565b604051808215151515815260200191505060405180910390f35b3480156105a257600080fd5b506105cb6004803603810190808035906020019092919080359060200190929190505050611ea0565b604051808215151515815260200191505060405180910390f35b3480156105f157600080fd5b5061063c600480360381019080803573ffffffffffffffffffffffffffffffffffffffff16906020019092919080359060200190929190803515159060200190929190505050611f16565b604051808215151515815260200191505060405180910390f35b34801561066257600080fd5b50610697600480360381019080803573ffffffffffffffffffffffffffffffffffffffff16906020019092919050505061233a565b604051808481526020018315151515815260200182151515158152602001935050505060405180910390f35b3480156106cf57600080fd5b5061073460048036038101908080359060200190929190803590602001908201803590602001908080601f016020809104026020016040519081016040528093929190818152602001838380828437820191505050505050919291929050505061237e565b604051808215151515815260200191505060405180910390f35b34801561075a57600080fd5b50610779600480360381019080803590602001909291905050506126f9565b604051808215151515815260200191505060405180910390f35b34801561079f57600080fd5b506107d2600480360381019080803590602001909291908035906020019092919080359060200190929190505050612967565b005b3480156107e057600080fd5b506107ff60048036038101908080359060200190929190505050612996565b604051808215151515815260200191505060405180910390f35b34801561082557600080fd5b5061084460048036038101908080359060200190929190505050613332565b604051808215151515815260200191505060405180910390f35b34801561086a57600080fd5b506108d96004803603810190808035906020019092919080359060200190929190803590602001908201803590602001908080601f016020809104026020016040519081016040528093929190818152602001838380828437820191505050505050919291929050505061344b565b604051808215151515815260200191505060405180910390f35b3480156108ff57600080fd5b50610908613482565b604051808273ffffffffffffffffffffffffffffffffffffffff1673ffffffffffffffffffffffffffffffffffffffff16815260200191505060405180910390f35b34801561095657600080fd5b5061097f60048036038101908080359060200190929190803590602001909291905050506134a8565b604051808215151515815260200191505060405180910390f35b600080600160008581526020019081526020016000209050600160048111156109be57fe5b8160070160009054906101000a900460ff1660048111156109db57fe5b1415156109e757600080fd5b8060040154431080156109fd5750806005015443115b8015610a0d575080600601544311155b1515610a1857600080fd5b600760003373ffffffffffffffffffffffffffffffffffffffff1673ffffffffffffffffffffffffffffffffffffffff16815260200190815260200160002060010160009054906101000a900460ff1680610ab4575060008160090160003373ffffffffffffffffffffffffffffffffffffffff1673ffffffffffffffffffffffffffffffffffffffff16815260200190815260200160002054115b1515610abf57600080fd5b80600b0160008473ffffffffffffffffffffffffffffffffffffffff1673ffffffffffffffffffffffffffffffffffffffff16815260200190815260200160002060020160009054906101000a900460ff168015610b4957508273ffffffffffffffffffffffffffffffffffffffff163373ffffffffffffffffffffffffffffffffffffffff1614155b1515610b5457600080fd5b600181600b0160008573ffffffffffffffffffffffffffffffffffffffff1673ffffffffffffffffffffffffffffffffffffffff16815260200190815260200160002060010160008282540192505081905550610c018484600760003373ffffffffffffffffffffffffffffffffffffffff1673ffffffffffffffffffffffffffffffffffffffff16815260200190815260200160002060010160009054906101000a900460ff166135ca565b8273ffffffffffffffffffffffffffffffffffffffff163373ffffffffffffffffffffffffffffffffffffffff16857f3eb39bf09a967b24103c862ecf5070a50f3b20a80a64d1d0f80d4adc5833c96560405160405180910390a4600191505092915050565b600080600760003373ffffffffffffffffffffffffffffffffffffffff1673ffffffffffffffffffffffffffffffffffffffff16815260200190815260200160002060010160009054906101000a900460ff161515610cc557600080fd5b60016000878152602001908152602001600020905060006004811115610ce757fe5b8160070160009054906101000a900460ff166004811115610d0457fe5b141515610d1057600080fd5b8385108015610d1e57508284105b8015610d2e575080600401548310155b1515610d3957600080fd5b60018160070160006101000a81548160ff02191690836004811115610d5a57fe5b02179055508481600501819055508381600601819055508281600401819055503373ffffffffffffffffffffffffffffffffffffffff16867f6a7527c1127e57b7178d486b4702a1e61c216676962cbb55209b332a93f5b46687878760405180848152602001838152602001828152602001935050505060405180910390a36001915050949350505050565b60026020528060005260406000206000915090505481565b600080600760003373ffffffffffffffffffffffffffffffffffffffff1673ffffffffffffffffffffffffffffffffffffffff16815260200190815260200160002060010160009054906101000a900460ff161515610e5c57600080fd5b60016000848152602001908152602001600020905060006004811115610e7e57fe5b8160070160009054906101000a900460ff166004811115610e9b57fe5b141515610ea757600080fd5b60028160070160006101000a81548160ff02191690836004811115610ec857fe5b02179055503373ffffffffffffffffffffffffffffffffffffffff16837ece63cc55966b103e4f4cb39f3426cb91718ad4f8eb4ad08c14a7ee749d815760405160405180910390a36001915050919050565b600081600260003373ffffffffffffffffffffffffffffffffffffffff1673ffffffffffffffffffffffffffffffffffffffff1681526020019081526020016000205410151515610f6a57600080fd5b600860009054906101000a900473ffffffffffffffffffffffffffffffffffffffff1673ffffffffffffffffffffffffffffffffffffffff1663a9059cbb33846040518363ffffffff167c0100000000000000000000000000000000000000000000000000000000028152600401808373ffffffffffffffffffffffffffffffffffffffff1673ffffffffffffffffffffffffffffffffffffffff16815260200182815260200192505050602060405180830381600087803b15801561102f57600080fd5b505af1158015611043573d6000803e3d6000fd5b505050506040513d602081101561105957600080fd5b8101908080519060200190929190505050151561107557600080fd5b6110c782600260003373ffffffffffffffffffffffffffffffffffffffff1673ffffffffffffffffffffffffffffffffffffffff1681526020019081526020016000205461399d90919063ffffffff16565b600260003373ffffffffffffffffffffffffffffffffffffffff1673ffffffffffffffffffffffffffffffffffffffff1681526020019081526020016000208190555060019050919050565b600061111d6139e8565b84600260003373ffffffffffffffffffffffffffffffffffffffff1673ffffffffffffffffffffffffffffffffffffffff168152602001908152602001600020541015151561116b57600080fd5b8060016000805481526020019081526020016000206000820151816000015560208201518160010160006101000a81548173ffffffffffffffffffffffffffffffffffffffff021916908373ffffffffffffffffffffffffffffffffffffffff1602179055506040820151816002015560608201518160030190805190602001906111f7929190613a5d565b506080820151816004015560a0820151816005015560c0820151816006015560e08201518160070160006101000a81548160ff0219169083600481111561123a57fe5b021790555061010082015181600801908051906020019061125c929190613add565b5061012082015181600a01908051906020019061127a929190613add565b5090505060005460016000805481526020019081526020016000206000018190555033600160008054815260200190815260200160002060010160006101000a81548173ffffffffffffffffffffffffffffffffffffffff021916908373ffffffffffffffffffffffffffffffffffffffff160217905550846001600080548152602001908152602001600020600201819055508260016000805481526020019081526020016000206003019080519060200190611339929190613b67565b50836001600080548152602001908152602001600020600401819055506000600160008054815260200190815260200160002060070160006101000a81548160ff0219169083600481111561138a57fe5b02179055506113e185600260003373ffffffffffffffffffffffffffffffffffffffff1673ffffffffffffffffffffffffffffffffffffffff1681526020019081526020016000205461399d90919063ffffffff16565b600260003373ffffffffffffffffffffffffffffffffffffffff1673ffffffffffffffffffffffffffffffffffffffff1681526020019081526020016000208190555084600160008054815260200190815260200160002060090160003373ffffffffffffffffffffffffffffffffffffffff1673ffffffffffffffffffffffffffffffffffffffff1681526020019081526020016000208190555060016000805481526020019081526020016000206008013390806001815401808255809150509060018203906000526020600020016000909192909190916101000a81548173ffffffffffffffffffffffffffffffffffffffff021916908373ffffffffffffffffffffffffffffffffffffffff160217905550503373ffffffffffffffffffffffffffffffffffffffff167fe4940ae2b42ec040756a3ea4c2b2f4e85090b147982955e07be76d7be3036009600080815480929190600101919050558688876040518085815260200184815260200183815260200180602001828103825283818151815260200191508051906020019080838360005b8381101561159557808201518184015260208101905061157a565b50505050905090810190601f1680156115c25780820380516001836020036101000a031916815260200191505b509550505050505060405180910390a260019150509392505050565b60008082600260003373ffffffffffffffffffffffffffffffffffffffff1673ffffffffffffffffffffffffffffffffffffffff16815260200190815260200160002054101580156116305750600083115b801561163e57506003548310155b151561164957600080fd5b6001600085815260200190815260200160002090506001600481111561166b57fe5b8160070160009054906101000a900460ff16600481111561168857fe5b148061171657506000600481111561169c57fe5b8160070160009054906101000a900460ff1660048111156116b957fe5b14801561171557503373ffffffffffffffffffffffffffffffffffffffff168160010160009054906101000a900473ffffffffffffffffffffffffffffffffffffffff1673ffffffffffffffffffffffffffffffffffffffff16145b5b151561172157600080fd5b8060040154431080156117375750806006015443105b151561174257600080fd5b6004548160080180549050108061179a575060008160090160003373ffffffffffffffffffffffffffffffffffffffff1673ffffffffffffffffffffffffffffffffffffffff16815260200190815260200160002054115b15156117a557600080fd5b6117f783600260003373ffffffffffffffffffffffffffffffffffffffff1673ffffffffffffffffffffffffffffffffffffffff1681526020019081526020016000205461399d90919063ffffffff16565b600260003373ffffffffffffffffffffffffffffffffffffffff1673ffffffffffffffffffffffffffffffffffffffff168152602001908152602001600020819055506118518382600201546139b690919063ffffffff16565b816002018190555060008160090160003373ffffffffffffffffffffffffffffffffffffffff1673ffffffffffffffffffffffffffffffffffffffff16815260200190815260200160002054141561190c57806008013390806001815401808255809150509060018203906000526020600020016000909192909190916101000a81548173ffffffffffffffffffffffffffffffffffffffff021916908373ffffffffffffffffffffffffffffffffffffffff160217905550505b611960838260090160003373ffffffffffffffffffffffffffffffffffffffff1673ffffffffffffffffffffffffffffffffffffffff168152602001908152602001600020546139b690919063ffffffff16565b8160090160003373ffffffffffffffffffffffffffffffffffffffff1673ffffffffffffffffffffffffffffffffffffffff168152602001908152602001600020819055503373ffffffffffffffffffffffffffffffffffffffff16847fe956662328c81b19ccd3d8666304be39ec1b5fa1e9f004554a5ffaf996011b11856040518082815260200191505060405180910390a3600191505092915050565b60005481565b60008060016000848152602001908152602001600020905060008160020154111515611a3057600080fd5b60008160090160003373ffffffffffffffffffffffffffffffffffffffff1673ffffffffffffffffffffffffffffffffffffffff16815260200190815260200160002054111515611a8057600080fd5b806004015443118015611aba575060016004811115611a9b57fe5b8160070160009054906101000a900460ff166004811115611ab857fe5b145b80611aeb5750600480811115611acc57fe5b8160070160009054906101000a900460ff166004811115611ae957fe5b145b80611b1d575060026004811115611afe57fe5b8160070160009054906101000a900460ff166004811115611b1b57fe5b145b1515611b2857600080fd5b611bbb8160090160003373ffffffffffffffffffffffffffffffffffffffff1673ffffffffffffffffffffffffffffffffffffffff16815260200190815260200160002054600260003373ffffffffffffffffffffffffffffffffffffffff1673ffffffffffffffffffffffffffffffffffffffff168152602001908152602001600020546139b690919063ffffffff16565b600260003373ffffffffffffffffffffffffffffffffffffffff1673ffffffffffffffffffffffffffffffffffffffff16815260200190815260200160002081905550611c568160090160003373ffffffffffffffffffffffffffffffffffffffff1673ffffffffffffffffffffffffffffffffffffffff16815260200190815260200160002054826002015461399d90919063ffffffff16565b816002018190555060008160090160003373ffffffffffffffffffffffffffffffffffffffff1673ffffffffffffffffffffffffffffffffffffffff168152602001908152602001600020819055506001915050919050565b60016020528060005260406000206000915090508060000154908060010160009054906101000a900473ffffffffffffffffffffffffffffffffffffffff1690806002015490806003018054600181600116156101000203166002900480601f016020809104026020016040519081016040528092919081815260200182805460018160011615610100020316600290048015611d8d5780601f10611d6257610100808354040283529160200191611d8d565b820191906000526020600020905b815481529060010190602001808311611d7057829003601f168201915b5050505050908060040154908060050154908060060154908060070160009054906101000a900460ff16905088565b60003373ffffffffffffffffffffffffffffffffffffffff16600560009054906101000a900473ffffffffffffffffffffffffffffffffffffffff1673ffffffffffffffffffffffffffffffffffffffff16141515611e1a57600080fd5b600073ffffffffffffffffffffffffffffffffffffffff168273ffffffffffffffffffffffffffffffffffffffff1614151515611e5657600080fd5b81600560006101000a81548173ffffffffffffffffffffffffffffffffffffffff021916908373ffffffffffffffffffffffffffffffffffffffff16021790555060019050919050565b60003373ffffffffffffffffffffffffffffffffffffffff16600560009054906101000a900473ffffffffffffffffffffffffffffffffffffffff1673ffffffffffffffffffffffffffffffffffffffff16141515611efe57600080fd5b82600381905550816004819055506001905092915050565b6000611f20613be7565b3373ffffffffffffffffffffffffffffffffffffffff16600560009054906101000a900473ffffffffffffffffffffffffffffffffffffffff1673ffffffffffffffffffffffffffffffffffffffff16148061201657506001600760003373ffffffffffffffffffffffffffffffffffffffff1673ffffffffffffffffffffffffffffffffffffffff168152602001908152602001600020600001541480156120155750600760003373ffffffffffffffffffffffffffffffffffffffff1673ffffffffffffffffffffffffffffffffffffffff16815260200190815260200160002060010160009054906101000a900460ff165b5b151561202157600080fd5b600073ffffffffffffffffffffffffffffffffffffffff168573ffffffffffffffffffffffffffffffffffffffff161415151561205d57600080fd5b600084148061206c5750600184145b151561207757600080fd5b600760008673ffffffffffffffffffffffffffffffffffffffff1673ffffffffffffffffffffffffffffffffffffffff16815260200190815260200160002060010160019054906101000a900460ff1615156121345760068590806001815401808255809150509060018203906000526020600020016000909192909190916101000a81548173ffffffffffffffffffffffffffffffffffffffff021916908373ffffffffffffffffffffffffffffffffffffffff160217905550505b80600760008773ffffffffffffffffffffffffffffffffffffffff1673ffffffffffffffffffffffffffffffffffffffff1681526020019081526020016000206000820151816000015560208201518160010160006101000a81548160ff02191690831515021790555060408201518160010160016101000a81548160ff02191690831515021790555090505083600760008773ffffffffffffffffffffffffffffffffffffffff1673ffffffffffffffffffffffffffffffffffffffff1681526020019081526020016000206000018190555082600760008773ffffffffffffffffffffffffffffffffffffffff1673ffffffffffffffffffffffffffffffffffffffff16815260200190815260200160002060010160006101000a81548160ff0219169083151502179055506001600760008773ffffffffffffffffffffffffffffffffffffffff1673ffffffffffffffffffffffffffffffffffffffff16815260200190815260200160002060010160016101000a81548160ff0219169083151502179055503373ffffffffffffffffffffffffffffffffffffffff168573ffffffffffffffffffffffffffffffffffffffff167f04bacb862a32831fafcf5025e9a32500574cb00a09743ee037a0d93f60f47063868660405180838152602001821515151581526020019250505060405180910390a360019150509392505050565b60076020528060005260406000206000915090508060000154908060010160009054906101000a900460ff16908060010160019054906101000a900460ff16905083565b600080612389613c0d565b600160008681526020019081526020016000209150600160048111156123ab57fe5b8260070160009054906101000a900460ff1660048111156123c857fe5b1415156123d457600080fd5b8160040154431080156123eb575081600501544311155b15156123f657600080fd5b81600b0160003373ffffffffffffffffffffffffffffffffffffffff1673ffffffffffffffffffffffffffffffffffffffff16815260200190815260200160002060020160009054906101000a900460ff1615156124b75781600a013390806001815401808255809150509060018203906000526020600020016000909192909190916101000a81548173ffffffffffffffffffffffffffffffffffffffff021916908373ffffffffffffffffffffffffffffffffffffffff160217905550505b8082600b0160003373ffffffffffffffffffffffffffffffffffffffff1673ffffffffffffffffffffffffffffffffffffffff1681526020019081526020016000206000820151816000019080519060200190612515929190613a5d565b506020820151816001015560408201518160020160006101000a81548160ff02191690831515021790555060608201518160020160016101000a81548160ff02191690831515021790555060808201518160020160026101000a81548160ff0219169083151502179055509050508382600b0160003373ffffffffffffffffffffffffffffffffffffffff1673ffffffffffffffffffffffffffffffffffffffff16815260200190815260200160002060000190805190602001906125db929190613b67565b50600182600b0160003373ffffffffffffffffffffffffffffffffffffffff1673ffffffffffffffffffffffffffffffffffffffff16815260200190815260200160002060020160006101000a81548160ff0219169083151502179055503373ffffffffffffffffffffffffffffffffffffffff16857f289c99c8edfb41417e57324d8994c839d5c6cddacca30c18b6d24047617e8b28866040518080602001828103825283818151815260200191508051906020019080838360005b838110156126b3578082015181840152602081019050612698565b50505050905090810190601f1680156126e05780820380516001836020036101000a031916815260200191505b509250505060405180910390a360019250505092915050565b6000600860009054906101000a900473ffffffffffffffffffffffffffffffffffffffff1673ffffffffffffffffffffffffffffffffffffffff166323b872dd3330856040518463ffffffff167c0100000000000000000000000000000000000000000000000000000000028152600401808473ffffffffffffffffffffffffffffffffffffffff1673ffffffffffffffffffffffffffffffffffffffff1681526020018373ffffffffffffffffffffffffffffffffffffffff1673ffffffffffffffffffffffffffffffffffffffff1681526020018281526020019350505050602060405180830381600087803b1580156127f457600080fd5b505af1158015612808573d6000803e3d6000fd5b505050506040513d602081101561281e57600080fd5b810190808051906020019092919050505015156128c9576040517f08c379a00000000000000000000000000000000000000000000000000000000081526004018080602001828103825260288152602001807f556e61626c6520746f207472616e7366657220746f6b656e20746f207468652081526020017f636f6e747261637400000000000000000000000000000000000000000000000081525060400191505060405180910390fd5b61291b82600260003373ffffffffffffffffffffffffffffffffffffffff1673ffffffffffffffffffffffffffffffffffffffff168152602001908152602001600020546139b690919063ffffffff16565b600260003373ffffffffffffffffffffffffffffffffffffffff1673ffffffffffffffffffffffffffffffffffffffff1681526020019081526020016000208190555060019050919050565b61297183836134a8565b151561297c57600080fd5b61298683826115de565b151561299157600080fd5b505050565b600080600080600080600080600160008a81526020019081526020016000209150600160048111156129c457fe5b8260070160009054906101000a900460ff1660048111156129e157fe5b1480156129f2575060008260020154115b15156129fd57600080fd5b816006015443118015612a135750816004015443105b1515612a1e57600080fd5b81600b0160003373ffffffffffffffffffffffffffffffffffffffff1673ffffffffffffffffffffffffffffffffffffffff16815260200190815260200160002060020160009054906101000a900460ff168015612acb575081600b0160003373ffffffffffffffffffffffffffffffffffffffff1673ffffffffffffffffffffffffffffffffffffffff16815260200190815260200160002060020160029054906101000a900460ff16155b1515612ad657600080fd5b81600c0160008073ffffffffffffffffffffffffffffffffffffffff1673ffffffffffffffffffffffffffffffffffffffff16815260200190815260200160002060008073ffffffffffffffffffffffffffffffffffffffff1673ffffffffffffffffffffffffffffffffffffffff168152602001908152602001600020549650600090505b81600801805490508110156131c257600093508160080181815481101515612b8057fe5b9060005260206000200160009054906101000a900473ffffffffffffffffffffffffffffffffffffffff1692508160090160008473ffffffffffffffffffffffffffffffffffffffff1673ffffffffffffffffffffffffffffffffffffffff16815260200190815260200160002054955060008611156131b557600082600c0160008573ffffffffffffffffffffffffffffffffffffffff1673ffffffffffffffffffffffffffffffffffffffff16815260200190815260200160002060003373ffffffffffffffffffffffffffffffffffffffff1673ffffffffffffffffffffffffffffffffffffffff16815260200190815260200160002054118015612d065750600082600c0160008573ffffffffffffffffffffffffffffffffffffffff1673ffffffffffffffffffffffffffffffffffffffff16815260200190815260200160002060008073ffffffffffffffffffffffffffffffffffffffff1673ffffffffffffffffffffffffffffffffffffffff16815260200190815260200160002054115b15612e2157612e1a82600c0160008573ffffffffffffffffffffffffffffffffffffffff1673ffffffffffffffffffffffffffffffffffffffff16815260200190815260200160002060008573ffffffffffffffffffffffffffffffffffffffff1673ffffffffffffffffffffffffffffffffffffffff1681526020019081526020016000205483600c0160008673ffffffffffffffffffffffffffffffffffffffff1673ffffffffffffffffffffffffffffffffffffffff16815260200190815260200160002060008073ffffffffffffffffffffffffffffffffffffffff1673ffffffffffffffffffffffffffffffffffffffff1681526020019081526020016000205461399d90919063ffffffff16565b9350612fd3565b600087118015612eaf5750600082600c0160008073ffffffffffffffffffffffffffffffffffffffff1673ffffffffffffffffffffffffffffffffffffffff16815260200190815260200160002060003373ffffffffffffffffffffffffffffffffffffffff1673ffffffffffffffffffffffffffffffffffffffff16815260200190815260200160002054115b8015612f395750600082600c0160008573ffffffffffffffffffffffffffffffffffffffff1673ffffffffffffffffffffffffffffffffffffffff16815260200190815260200160002060008073ffffffffffffffffffffffffffffffffffffffff1673ffffffffffffffffffffffffffffffffffffffff16815260200190815260200160002054145b15612fd257612fcf82600c0160008573ffffffffffffffffffffffffffffffffffffffff1673ffffffffffffffffffffffffffffffffffffffff16815260200190815260200160002060008573ffffffffffffffffffffffffffffffffffffffff1673ffffffffffffffffffffffffffffffffffffffff168152602001908152602001600020548861399d90919063ffffffff16565b93505b5b60008411156131b457612fef84876139d290919063ffffffff16565b9550613045868360090160008673ffffffffffffffffffffffffffffffffffffffff1673ffffffffffffffffffffffffffffffffffffffff1681526020019081526020016000205461399d90919063ffffffff16565b8260090160008573ffffffffffffffffffffffffffffffffffffffff1673ffffffffffffffffffffffffffffffffffffffff1681526020019081526020016000208190555061309d86866139b690919063ffffffff16565b9450613131600183600c0160008673ffffffffffffffffffffffffffffffffffffffff1673ffffffffffffffffffffffffffffffffffffffff16815260200190815260200160002060008673ffffffffffffffffffffffffffffffffffffffff1673ffffffffffffffffffffffffffffffffffffffff168152602001908152602001600020546139b690919063ffffffff16565b82600c0160008573ffffffffffffffffffffffffffffffffffffffff1673ffffffffffffffffffffffffffffffffffffffff16815260200190815260200160002060008573ffffffffffffffffffffffffffffffffffffffff1673ffffffffffffffffffffffffffffffffffffffff168152602001908152602001600020819055505b5b8080600101915050612b5c565b6131d985836002015461399d90919063ffffffff16565b826002018190555061323385600260003373ffffffffffffffffffffffffffffffffffffffff1673ffffffffffffffffffffffffffffffffffffffff168152602001908152602001600020546139b690919063ffffffff16565b600260003373ffffffffffffffffffffffffffffffffffffffff1673ffffffffffffffffffffffffffffffffffffffff16815260200190815260200160002081905550600182600b0160003373ffffffffffffffffffffffffffffffffffffffff1673ffffffffffffffffffffffffffffffffffffffff16815260200190815260200160002060020160026101000a81548160ff0219169083151502179055503373ffffffffffffffffffffffffffffffffffffffff16897fa77334abceb70f6b14676b12b5f95ea51e94727165c2ef31d7c4bbffb0d6c633876040518082815260200191505060405180910390a36001975050505050505050919050565b600080600760003373ffffffffffffffffffffffffffffffffffffffff1673ffffffffffffffffffffffffffffffffffffffff16815260200190815260200160002060010160009054906101000a900460ff16151561339057600080fd5b600160008481526020019081526020016000209050600160048111156133b257fe5b8160070160009054906101000a900460ff1660048111156133cf57fe5b1415156133db57600080fd5b60048160070160006101000a81548160ff021916908360048111156133fc57fe5b02179055503373ffffffffffffffffffffffffffffffffffffffff16837f33e0ef9a1b13c585505b41f1828c57935eb2a491b550de25345243e25d20b9bf60405160405180910390a350919050565b6000613456846126f9565b151561346157600080fd5b61346c848484611113565b151561347757600080fd5b600190509392505050565b600860009054906101000a900473ffffffffffffffffffffffffffffffffffffffff1681565b6000806001600085815260200190815260200160002090508060010160009054906101000a900473ffffffffffffffffffffffffffffffffffffffff1673ffffffffffffffffffffffffffffffffffffffff163373ffffffffffffffffffffffffffffffffffffffff1614151561351e57600080fd5b6000600481111561352b57fe5b8160070160009054906101000a900460ff16600481111561354857fe5b14151561355457600080fd5b8060040154831015151561356757600080fd5b8281600401819055503373ffffffffffffffffffffffffffffffffffffffff16847fbbc4dd3bce62c5b771c77df4171d005b37753117e94003de29886c3debb1ccf0856040518082815260200191505060405180910390a3600191505092915050565b600060016000858152602001908152602001600020905081801561363d575080600b0160008473ffffffffffffffffffffffffffffffffffffffff1673ffffffffffffffffffffffffffffffffffffffff16815260200190815260200160002060020160019054906101000a900460ff16155b156137b157600181600c0160008073ffffffffffffffffffffffffffffffffffffffff1673ffffffffffffffffffffffffffffffffffffffff16815260200190815260200160002060008073ffffffffffffffffffffffffffffffffffffffff1673ffffffffffffffffffffffffffffffffffffffff16815260200190815260200160002060008282540192505081905550600181600c0160008073ffffffffffffffffffffffffffffffffffffffff1673ffffffffffffffffffffffffffffffffffffffff16815260200190815260200160002060008573ffffffffffffffffffffffffffffffffffffffff1673ffffffffffffffffffffffffffffffffffffffff16815260200190815260200160002081905550600181600b0160008573ffffffffffffffffffffffffffffffffffffffff1673ffffffffffffffffffffffffffffffffffffffff16815260200190815260200160002060020160016101000a81548160ff0219169083151502179055505b60008160090160003373ffffffffffffffffffffffffffffffffffffffff1673ffffffffffffffffffffffffffffffffffffffff168152602001908152602001600020541180156138805750600081600c0160003373ffffffffffffffffffffffffffffffffffffffff1673ffffffffffffffffffffffffffffffffffffffff16815260200190815260200160002060008573ffffffffffffffffffffffffffffffffffffffff1673ffffffffffffffffffffffffffffffffffffffff16815260200190815260200160002054145b1561399757600181600c0160003373ffffffffffffffffffffffffffffffffffffffff1673ffffffffffffffffffffffffffffffffffffffff16815260200190815260200160002060008073ffffffffffffffffffffffffffffffffffffffff1673ffffffffffffffffffffffffffffffffffffffff16815260200190815260200160002060008282540192505081905550600181600c0160003373ffffffffffffffffffffffffffffffffffffffff1673ffffffffffffffffffffffffffffffffffffffff16815260200190815260200160002060008573ffffffffffffffffffffffffffffffffffffffff1673ffffffffffffffffffffffffffffffffffffffff168152602001908152602001600020819055505b50505050565b60008282111515156139ab57fe5b818303905092915050565b600081830190508281101515156139c957fe5b80905092915050565b600081838115156139df57fe5b04905092915050565b6101406040519081016040528060008152602001600073ffffffffffffffffffffffffffffffffffffffff168152602001600081526020016060815260200160008152602001600081526020016000815260200160006004811115613a4957fe5b815260200160608152602001606081525090565b828054600181600116156101000203166002900490600052602060002090601f016020900481019282601f10613a9e57805160ff1916838001178555613acc565b82800160010185558215613acc579182015b82811115613acb578251825591602001919060010190613ab0565b5b509050613ad99190613c43565b5090565b828054828255906000526020600020908101928215613b56579160200282015b82811115613b555782518260006101000a81548173ffffffffffffffffffffffffffffffffffffffff021916908373ffffffffffffffffffffffffffffffffffffffff16021790555091602001919060010190613afd565b5b509050613b639190613c68565b5090565b828054600181600116156101000203166002900490600052602060002090601f016020900481019282601f10613ba857805160ff1916838001178555613bd6565b82800160010185558215613bd6579182015b82811115613bd5578251825591602001919060010190613bba565b5b509050613be39190613c43565b5090565b606060405190810160405280600081526020016000151581526020016000151581525090565b60a06040519081016040528060608152602001600081526020016000151581526020016000151581526020016000151581525090565b613c6591905b80821115613c61576000816000905550600101613c49565b5090565b90565b613ca891905b80821115613ca457600081816101000a81549073ffffffffffffffffffffffffffffffffffffffff021916905550600101613c6e565b5090565b905600a165627a7a7230582073ca5cf5c57b71779fed47d6bcb4a132af80ca508ca78612064e0191f2f9ab960029",
  "source": "pragma solidity ^0.4.24;\r\n\r\nimport \"openzeppelin-solidity/contracts/token/ERC20/ERC20.sol\";\r\nimport \"openzeppelin-solidity/contracts/math/SafeMath.sol\";\r\n\r\ncontract ServiceRequest {\r\n    \r\n    using SafeMath for uint256;\r\n    \r\n    struct Request {\r\n        uint256 requestId;\r\n        address requester;\r\n        uint256 totalFund;\r\n        bytes documentURI;\r\n        \r\n        uint256 expiration;\r\n        uint256 endSubmission;\r\n        uint256 endEvaluation;\r\n        \r\n        RequestStatus status;\r\n        \r\n        address[] stakeMembers;\r\n        mapping(address => uint256) funds;\r\n        \r\n        address[] submitters;\r\n        mapping(address => Solution) submittedSols;\r\n        \r\n        mapping(address => mapping(address => uint256)) votes;\r\n    }\r\n\r\n    // Open -> Rejected\r\n    // Open -> Approved -> Completed (TODO: Yet to get the logic for completed state - checking it is needed)\r\n    // Open -> Approved -> Closed\r\n    enum RequestStatus { Open, Approved, Rejected, Completed, Closed }\r\n    \r\n    struct Solution {\r\n        bytes solutionDocURI;\r\n        uint256 totalVotes;\r\n        \r\n        bool isSubmitted;\r\n        bool isShortlisted;\r\n        bool isClaimed;\r\n    }\r\n    \r\n    uint256 public nextRequestId;\r\n    mapping (uint256 => Request) public requests;\r\n    mapping (address => uint256) public balances;\r\n    \r\n    uint256 minStake;\r\n    uint256 maxStakers;\r\n\r\n    address owner;\r\n    \r\n    address[] memberKeys;\r\n    struct Member {\r\n        uint role; // 0-Normal member, 1-> Admin Member who can add other members\r\n        bool status; // True -> Active, False -> InActive/Deleted\r\n        bool exists; // To check the existstance of the Member\r\n    }\r\n    mapping(address => Member) public foundationMembers;\r\n \r\n    ERC20 public token; // Address of token contract\r\n    \r\n\r\n    // Events\r\n    event AddFoundationMember(address indexed member, uint role, bool status, address indexed actor);\r\n    event CreateRequest(uint256 requestId, address indexed requester, uint256 expiration, uint256 amount, bytes documentURI);\r\n    event ExtendRequest(uint256 indexed requestId, address indexed requester, uint256 expiration);\r\n    event ApproveRequest(uint256 indexed requestId, address indexed approver, uint256 endSubmission, uint256 endEvaluation, uint256 expiration);\r\n    event FundRequest(uint256 indexed requestId, address indexed staker, uint256 amount);\r\n    event AddSolutionRequest(uint256 indexed requestId, address indexed submitter, bytes solutionDocURI);\r\n    event VoteRequest(uint256 indexed requestId, address indexed voter, address indexed submitter);\r\n    event ClaimRequest(uint256 indexed requestId, address indexed submitter, uint256 amount);\r\n    event CloseRequest(uint256 indexed requestId, address indexed actor);\r\n    event RejectRequest(uint256 indexed requestId, address indexed actor);\r\n\r\n    constructor (address _token, uint256 _minStake, uint256 _maxStakers)\r\n    public\r\n    {\r\n        token = ERC20(_token);\r\n        owner = msg.sender;\r\n        nextRequestId = 0;\r\n        minStake = _minStake;\r\n        maxStakers = _maxStakers;\r\n    }\r\n  \r\n    function deposit(uint256 value) \r\n    public\r\n    returns(bool) \r\n    {\r\n        require(token.transferFrom(msg.sender, this, value), \"Unable to transfer token to the contract\"); \r\n        balances[msg.sender] = balances[msg.sender].add(value);\r\n        return true;\r\n    }\r\n    \r\n    function withdraw(uint256 value)\r\n    public\r\n    returns(bool)\r\n    {\r\n        require(balances[msg.sender] >= value);\r\n        require(token.transfer(msg.sender, value));\r\n        balances[msg.sender] = balances[msg.sender].sub(value);\r\n        return true;\r\n    }\r\n    \r\n    function updateOwner(address newOwner) public returns(bool) {\r\n        require(owner == msg.sender);\r\n        require(newOwner != address(0));\r\n        \r\n        owner = newOwner;\r\n        \r\n        return true;\r\n    }\r\n\r\n    function updateLimits(uint256 _minStake, uint256 _maxStakers) public returns(bool) {\r\n        require(owner == msg.sender);\r\n        minStake = _minStake;\r\n        maxStakers = _maxStakers;\r\n        return true;\r\n    }\r\n    \r\n    function addOrUpdateFoundationMembers(address member, uint role, bool active) public returns (bool) {\r\n        \r\n        require(owner == msg.sender || (foundationMembers[msg.sender].role == 1 && foundationMembers[msg.sender].status));\r\n        require(member != address(0));\r\n        require(role == 0 || role == 1);\r\n        \r\n        Member memory mem;\r\n        if(!foundationMembers[member].exists) {\r\n            memberKeys.push(member);\r\n        }\r\n        foundationMembers[member] = mem;\r\n        foundationMembers[member].role = role;\r\n        foundationMembers[member].status = active;\r\n        foundationMembers[member].exists = true;\r\n        \r\n        emit AddFoundationMember(member, role, active, msg.sender);\r\n\r\n        return true;\r\n    }\r\n    \r\n    function createRequest(uint256 value, uint256 expiration, bytes documentURI) \r\n    public\r\n    returns(bool) \r\n    {\r\n        require(balances[msg.sender] >= value);\r\n        \r\n        Request memory req;\r\n        requests[nextRequestId] = req;\r\n        \r\n        requests[nextRequestId].requestId = nextRequestId;\r\n        requests[nextRequestId].requester = msg.sender;\r\n        requests[nextRequestId].totalFund = value;\r\n        requests[nextRequestId].documentURI = documentURI;\r\n        requests[nextRequestId].expiration = expiration;\r\n        requests[nextRequestId].status = RequestStatus.Open;\r\n\r\n        balances[msg.sender] = balances[msg.sender].sub(value);\r\n\r\n        requests[nextRequestId].funds[msg.sender] = value;\r\n        requests[nextRequestId].stakeMembers.push(msg.sender);\r\n        \r\n        emit CreateRequest(nextRequestId++, msg.sender, expiration, value, documentURI);\r\n\r\n        return true;\r\n    }\r\n\r\n    function depositAndCreateRequest(uint256 value, uint256 expiration, bytes documentURI)\r\n    public\r\n    returns(bool)\r\n    {\r\n        require(deposit(value));\r\n        require(createRequest(value, expiration, documentURI));\r\n        return true;\r\n    }\r\n\r\n\r\n    /// the sender can extend the expiration of the request at any time\r\n    function extendRequest(uint256 requestId, uint256 newExpiration) \r\n    public \r\n    returns(bool)\r\n    {\r\n        Request storage req = requests[requestId];\r\n\r\n        require(msg.sender == req.requester);\r\n        require(req.status == RequestStatus.Open);\r\n        require(newExpiration >= req.expiration);\r\n\r\n        req.expiration = newExpiration;\r\n\r\n        emit ExtendRequest(requestId, msg.sender, newExpiration);\r\n\r\n        return true;\r\n    }\r\n    \r\n    // Anyone could add funds to the service request\r\n    function addFundsToRequest(uint256 requestId, uint256 amount)\r\n    public\r\n    returns(bool)\r\n    {\r\n        require(balances[msg.sender] >= amount && amount > 0 && amount >= minStake);\r\n        \r\n        Request storage req = requests[requestId];\r\n        \r\n        // Request should be Approved - Means in Progress\r\n        require(req.status == RequestStatus.Approved || (req.status == RequestStatus.Open && req.requester == msg.sender));\r\n        \r\n        // Request should not be expired\r\n        require(block.number < req.expiration && block.number < req.endEvaluation);\r\n\r\n        // Check for Max Stakers only for new stake \r\n        require(req.stakeMembers.length < maxStakers || req.funds[msg.sender] > 0);\r\n\r\n        //tranfser amount from sender to the Service Request\r\n        balances[msg.sender] = balances[msg.sender].sub(amount);\r\n        req.totalFund = req.totalFund.add(amount);\r\n        \r\n        // Adding funds first time check\r\n        if(req.funds[msg.sender] == 0){\r\n            req.stakeMembers.push(msg.sender);\r\n        } // else member already exists\r\n\r\n        //Update the respective request funds\r\n        req.funds[msg.sender] = req.funds[msg.sender].add(amount);\r\n        \r\n        emit FundRequest(requestId, msg.sender, amount);\r\n\r\n        return true;\r\n    }\r\n\r\n    function extendAndAddFundsToRequest(uint256 requestId, uint256 newExpiration, uint256 amount)\r\n    public\r\n    {\r\n        require(extendRequest(requestId, newExpiration));\r\n        require(addFundsToRequest(requestId, amount));\r\n    }\r\n    \r\n    function approveRequest(uint256 requestId, uint256 endSubmission, uint256 endEvaluation, uint256 newExpiration) public returns(bool) {\r\n        \r\n        // Should be foundation Member\r\n        require(foundationMembers[msg.sender].status);\r\n        \r\n        Request storage req = requests[requestId];\r\n        \r\n        // Request should be active\r\n        require(req.status == RequestStatus.Open);\r\n        \r\n        // Request should not be expired -- We should allow this\r\n        //require(req.expiration > block.number);\r\n        require(endSubmission < endEvaluation && endEvaluation < newExpiration && newExpiration >= req.expiration );\r\n        \r\n        req.status = RequestStatus.Approved;\r\n        req.endSubmission = endSubmission;\r\n        req.endEvaluation = endEvaluation;\r\n        req.expiration = newExpiration;\r\n        \r\n        emit ApproveRequest(requestId, msg.sender, endSubmission, endEvaluation, newExpiration);\r\n\r\n        return true;\r\n    }\r\n    \r\n    function rejectRequest(uint256 requestId) public returns(bool) {\r\n        \r\n        // Should be foundation Member\r\n        require(foundationMembers[msg.sender].status);\r\n        \r\n        Request storage req = requests[requestId];\r\n        \r\n        // Request should be active\r\n        require(req.status == RequestStatus.Open);\r\n        \r\n        // Change the status of the Request to Rejected\r\n        req.status = RequestStatus.Rejected;\r\n\r\n        // Stake Members to needs to claim by themselves\r\n        //settleFundsAndChangeStatus(requestId, RequestStatus.Rejected);\r\n        \r\n        emit RejectRequest(requestId, msg.sender);\r\n\r\n        return true;\r\n    }\r\n\r\n    function closeRequest(uint256 requestId) public returns(bool) {\r\n        \r\n        // Should be ative foundation Member\r\n        require(foundationMembers[msg.sender].status);\r\n        \r\n        Request storage req = requests[requestId];\r\n        \r\n        // Request should be active\r\n        require(req.status == RequestStatus.Approved);  \r\n        \r\n        // Change the status of the Request to Closed\r\n        req.status = RequestStatus.Closed;\r\n        \r\n        // Stake Members to needs to claim by themselves\r\n        //settleFundsAndChangeStatus(requestId, RequestStatus.Closed);\r\n        \r\n        emit CloseRequest(requestId, msg.sender);\r\n    }\r\n    \r\n    // TBD: Function to be deleted as Claim will be done explicitly\r\n    function settleFundsAndChangeStatus(uint256 requestId, RequestStatus finalStatus) internal returns(bool) {\r\n        \r\n        Request storage req = requests[requestId];\r\n        uint256 amount;\r\n        for(uint256 i=0; i<req.stakeMembers.length; i++) {\r\n            amount = req.funds[req.stakeMembers[i]];\r\n            req.funds[req.stakeMembers[i]] = req.funds[req.stakeMembers[i]].sub(amount);\r\n            balances[req.stakeMembers[i]] = balances[req.stakeMembers[i]].add(amount);\r\n        }\r\n        req.totalFund = 0;\r\n        req.status = finalStatus;\r\n        \r\n        return true;\r\n    }\r\n    \r\n    function createOrUpdateSolutionProposal(uint256 requestId, bytes solutionDocURI)\r\n    public\r\n    returns(bool)\r\n    {\r\n        Request storage req = requests[requestId];\r\n\r\n        // Request should be active\r\n        require(req.status == RequestStatus.Approved);\r\n        \r\n        // Request should not be expired\r\n        require(block.number < req.expiration && block.number <= req.endSubmission);\r\n        \r\n        Solution memory sol;\r\n\r\n        // Check if already user submitted the solution\r\n        if(!req.submittedSols[msg.sender].isSubmitted) {\r\n            req.submitters.push(msg.sender);\r\n        }\r\n        // Create or Update the Submitted Solution\r\n        req.submittedSols[msg.sender] = sol;\r\n        req.submittedSols[msg.sender].solutionDocURI = solutionDocURI;\r\n        req.submittedSols[msg.sender].isSubmitted = true;\r\n        \r\n        emit AddSolutionRequest(requestId, msg.sender, solutionDocURI);\r\n\r\n        return true;\r\n        \r\n    }\r\n\r\n    // Only users who has stake can vote\r\n    // Foundation members can vote => Shortlist\r\n    function vote(uint256 requestId, address solutionSubmitter) public returns (bool) {\r\n        \r\n        Request storage req = requests[requestId];\r\n        \r\n        // Request should be active\r\n        require(req.status == RequestStatus.Approved);\r\n        \r\n        // Request should not be expired\r\n        require(block.number < req.expiration && block.number > req.endSubmission && block.number <= req.endEvaluation);\r\n        \r\n        // Should be foundation Member or Staking Member to Vote\r\n        require(foundationMembers[msg.sender].status || req.funds[msg.sender] > 0);\r\n        \r\n        // Check for solution Submitter status and cannot for own submission\r\n        require(req.submittedSols[solutionSubmitter].isSubmitted && msg.sender != solutionSubmitter);\r\n        \r\n        req.submittedSols[solutionSubmitter].totalVotes += 1;\r\n        \r\n        submitVote(requestId, solutionSubmitter, foundationMembers[msg.sender].status);\r\n        \r\n        emit VoteRequest(requestId, msg.sender, solutionSubmitter);\r\n        \r\n        return true;\r\n    }\r\n\r\n    function submitVote(uint256 requestId, address solutionSubmitter, bool isFromFoundation) \r\n    internal \r\n    {\r\n        \r\n        Request storage req = requests[requestId];\r\n\r\n        if(isFromFoundation && !req.submittedSols[solutionSubmitter].isShortlisted) {\r\n            // 0x0 contains foundation shortlisted solutions\r\n            req.votes[address(0)][address(0)] += 1;\r\n            req.votes[address(0)][solutionSubmitter] = 1;\r\n            req.submittedSols[solutionSubmitter].isShortlisted = true;\r\n        }\r\n        \r\n        if(req.funds[msg.sender] > 0 && req.votes[msg.sender][solutionSubmitter] == 0)\r\n        {\r\n            req.votes[msg.sender][address(0)] += 1;\r\n            req.votes[msg.sender][solutionSubmitter] = 1;\r\n        }\r\n    }\r\n    \r\n    function requestClaimBack(uint256 requestId) public returns (bool) {\r\n\r\n        Request storage req = requests[requestId];\r\n        \r\n        // Request should have funds\r\n        require(req.totalFund > 0);\r\n\r\n        // Should have stake\r\n        require(req.funds[msg.sender] > 0);\r\n\r\n        // Approved request should be expiried or Request is closed / rejected\r\n        require((block.number > req.expiration && req.status == RequestStatus.Approved) || req.status == RequestStatus.Closed || req.status == RequestStatus.Rejected);\r\n        \r\n        balances[msg.sender] = balances[msg.sender].add(req.funds[msg.sender]);\r\n        req.totalFund = req.totalFund.sub(req.funds[msg.sender]);\r\n        req.funds[msg.sender] = 0;\r\n        \r\n        return true;\r\n    }\r\n\r\n    function requestClaim(uint256 requestId) \r\n    public\r\n    returns (bool)\r\n    {\r\n        uint256 fundationVotes;\r\n        uint256 userStake;\r\n        uint256 totalClaim;\r\n        uint256 userVotes;\r\n        address stakeMember;\r\n        Request storage req = requests[requestId];\r\n        \r\n        // Request should be active and should have funds\r\n        require(req.status == RequestStatus.Approved && req.totalFund > 0);\r\n        \r\n        // Request should complete the eveluation and should not expire\r\n        require(block.number > req.endEvaluation && block.number < req.expiration);\r\n        \r\n        // Should be Solution Submitter Only and should have atleast one vote\r\n        require(req.submittedSols[msg.sender].isSubmitted && !req.submittedSols[msg.sender].isClaimed);\r\n        \r\n        fundationVotes = req.votes[address(0)][address(0)];\r\n        for(uint256 i=0; i<req.stakeMembers.length;i++) {\r\n            userVotes = 0;\r\n            stakeMember = req.stakeMembers[i];\r\n            userStake = req.funds[stakeMember];\r\n\r\n            if(userStake > 0) {\r\n                if(req.votes[stakeMember][msg.sender] > 0 && req.votes[stakeMember][address(0)] > 0) {\r\n                    userVotes = req.votes[stakeMember][address(0)].sub(req.votes[stakeMember][stakeMember]);\r\n                }\r\n                else if(fundationVotes > 0 && req.votes[address(0)][msg.sender] > 0 && req.votes[stakeMember][address(0)] == 0) {\r\n                    userVotes = fundationVotes.sub(req.votes[stakeMember][stakeMember]);               \r\n                }\r\n                if(userVotes > 0) {\r\n                    userStake = userStake.div(userVotes);\r\n                    req.funds[stakeMember] = req.funds[stakeMember].sub(userStake);\r\n                    totalClaim = totalClaim.add(userStake);\r\n                    req.votes[stakeMember][stakeMember] = req.votes[stakeMember][stakeMember].add(1);\r\n                }\r\n            }\r\n        }\r\n        \r\n        req.totalFund = req.totalFund.sub(totalClaim);\r\n        balances[msg.sender] = balances[msg.sender].add(totalClaim);\r\n        req.submittedSols[msg.sender].isClaimed = true;\r\n\r\n        emit ClaimRequest(requestId, msg.sender, totalClaim);\r\n        \r\n        return true;\r\n    }\r\n    \r\n}",
  "sourcePath": "C:\\MyProjects\\BlockchainSamples\\DrizzleSample\\drizzle-box-master\\contracts\\ServiceRequest.sol",
  "compiler": {
    "name": "solc",
    "version": "0.4.24+commit.e67f0147.Emscripten.clang"
  },
  "schemaVersion": "2.0.1",
  "updatedAt": "2019-01-09T15:46:41.579Z"
}