{
  "contractName": "ServiceRequest",
  "abi": [
    {
      "constant": true,
      "inputs": [
        {
          "name": "",
          "type": "address"
        }
      ],
      "name": "balances",
      "outputs": [
        {
          "name": "",
          "type": "uint256"
        }
      ],
      "payable": false,
      "stateMutability": "view",
      "type": "function"
    },
    {
      "constant": true,
      "inputs": [],
      "name": "minStake",
      "outputs": [
        {
          "name": "",
          "type": "uint256"
        }
      ],
      "payable": false,
      "stateMutability": "view",
      "type": "function"
    },
    {
      "constant": true,
      "inputs": [],
      "name": "maxStakers",
      "outputs": [
        {
          "name": "",
          "type": "uint256"
        }
      ],
      "payable": false,
      "stateMutability": "view",
      "type": "function"
    },
    {
      "constant": true,
      "inputs": [],
      "name": "nextRequestId",
      "outputs": [
        {
          "name": "",
          "type": "uint256"
        }
      ],
      "payable": false,
      "stateMutability": "view",
      "type": "function"
    },
    {
      "constant": true,
      "inputs": [
        {
          "name": "",
          "type": "uint256"
        }
      ],
      "name": "requests",
      "outputs": [
        {
          "name": "requestId",
          "type": "uint256"
        },
        {
          "name": "requester",
          "type": "address"
        },
        {
          "name": "totalFund",
          "type": "uint256"
        },
        {
          "name": "documentURI",
          "type": "bytes"
        },
        {
          "name": "expiration",
          "type": "uint256"
        },
        {
          "name": "endSubmission",
          "type": "uint256"
        },
        {
          "name": "endEvaluation",
          "type": "uint256"
        },
        {
          "name": "status",
          "type": "uint8"
        }
      ],
      "payable": false,
      "stateMutability": "view",
      "type": "function"
    },
    {
      "constant": true,
      "inputs": [],
      "name": "owner",
      "outputs": [
        {
          "name": "",
          "type": "address"
        }
      ],
      "payable": false,
      "stateMutability": "view",
      "type": "function"
    },
    {
      "constant": true,
      "inputs": [
        {
          "name": "",
          "type": "address"
        }
      ],
      "name": "foundationMembers",
      "outputs": [
        {
          "name": "role",
          "type": "uint256"
        },
        {
          "name": "status",
          "type": "bool"
        },
        {
          "name": "exists",
          "type": "bool"
        }
      ],
      "payable": false,
      "stateMutability": "view",
      "type": "function"
    },
    {
      "constant": true,
      "inputs": [
        {
          "name": "",
          "type": "uint256"
        }
      ],
      "name": "memberKeys",
      "outputs": [
        {
          "name": "",
          "type": "address"
        }
      ],
      "payable": false,
      "stateMutability": "view",
      "type": "function"
    },
    {
      "constant": true,
      "inputs": [],
      "name": "token",
      "outputs": [
        {
          "name": "",
          "type": "address"
        }
      ],
      "payable": false,
      "stateMutability": "view",
      "type": "function"
    },
    {
      "inputs": [
        {
          "name": "_token",
          "type": "address"
        },
        {
          "name": "_minStake",
          "type": "uint256"
        },
        {
          "name": "_maxStakers",
          "type": "uint256"
        }
      ],
      "payable": false,
      "stateMutability": "nonpayable",
      "type": "constructor"
    },
    {
      "anonymous": false,
      "inputs": [
        {
          "indexed": true,
          "name": "member",
          "type": "address"
        },
        {
          "indexed": false,
          "name": "role",
          "type": "uint256"
        },
        {
          "indexed": false,
          "name": "status",
          "type": "bool"
        },
        {
          "indexed": true,
          "name": "actor",
          "type": "address"
        }
      ],
      "name": "AddFoundationMember",
      "type": "event"
    },
    {
      "anonymous": false,
      "inputs": [
        {
          "indexed": false,
          "name": "requestId",
          "type": "uint256"
        },
        {
          "indexed": true,
          "name": "requester",
          "type": "address"
        },
        {
          "indexed": false,
          "name": "expiration",
          "type": "uint256"
        },
        {
          "indexed": false,
          "name": "amount",
          "type": "uint256"
        },
        {
          "indexed": false,
          "name": "documentURI",
          "type": "bytes"
        }
      ],
      "name": "CreateRequest",
      "type": "event"
    },
    {
      "anonymous": false,
      "inputs": [
        {
          "indexed": true,
          "name": "requestId",
          "type": "uint256"
        },
        {
          "indexed": true,
          "name": "requester",
          "type": "address"
        },
        {
          "indexed": false,
          "name": "expiration",
          "type": "uint256"
        }
      ],
      "name": "ExtendRequest",
      "type": "event"
    },
    {
      "anonymous": false,
      "inputs": [
        {
          "indexed": true,
          "name": "requestId",
          "type": "uint256"
        },
        {
          "indexed": true,
          "name": "approver",
          "type": "address"
        },
        {
          "indexed": false,
          "name": "endSubmission",
          "type": "uint256"
        },
        {
          "indexed": false,
          "name": "endEvaluation",
          "type": "uint256"
        },
        {
          "indexed": false,
          "name": "expiration",
          "type": "uint256"
        }
      ],
      "name": "ApproveRequest",
      "type": "event"
    },
    {
      "anonymous": false,
      "inputs": [
        {
          "indexed": true,
          "name": "requestId",
          "type": "uint256"
        },
        {
          "indexed": true,
          "name": "staker",
          "type": "address"
        },
        {
          "indexed": false,
          "name": "amount",
          "type": "uint256"
        }
      ],
      "name": "FundRequest",
      "type": "event"
    },
    {
      "anonymous": false,
      "inputs": [
        {
          "indexed": true,
          "name": "requestId",
          "type": "uint256"
        },
        {
          "indexed": true,
          "name": "submitter",
          "type": "address"
        },
        {
          "indexed": false,
          "name": "solutionDocURI",
          "type": "bytes"
        }
      ],
      "name": "AddSolutionRequest",
      "type": "event"
    },
    {
      "anonymous": false,
      "inputs": [
        {
          "indexed": true,
          "name": "requestId",
          "type": "uint256"
        },
        {
          "indexed": true,
          "name": "voter",
          "type": "address"
        },
        {
          "indexed": true,
          "name": "submitter",
          "type": "address"
        }
      ],
      "name": "VoteRequest",
      "type": "event"
    },
    {
      "anonymous": false,
      "inputs": [
        {
          "indexed": true,
          "name": "requestId",
          "type": "uint256"
        },
        {
          "indexed": true,
          "name": "submitter",
          "type": "address"
        },
        {
          "indexed": false,
          "name": "amount",
          "type": "uint256"
        }
      ],
      "name": "ClaimRequest",
      "type": "event"
    },
    {
      "anonymous": false,
      "inputs": [
        {
          "indexed": true,
          "name": "requestId",
          "type": "uint256"
        },
        {
          "indexed": true,
          "name": "actor",
          "type": "address"
        }
      ],
      "name": "CloseRequest",
      "type": "event"
    },
    {
      "anonymous": false,
      "inputs": [
        {
          "indexed": true,
          "name": "requestId",
          "type": "uint256"
        },
        {
          "indexed": true,
          "name": "actor",
          "type": "address"
        }
      ],
      "name": "RejectRequest",
      "type": "event"
    },
    {
      "constant": false,
      "inputs": [
        {
          "name": "value",
          "type": "uint256"
        }
      ],
      "name": "deposit",
      "outputs": [
        {
          "name": "",
          "type": "bool"
        }
      ],
      "payable": false,
      "stateMutability": "nonpayable",
      "type": "function"
    },
    {
      "constant": false,
      "inputs": [
        {
          "name": "value",
          "type": "uint256"
        }
      ],
      "name": "withdraw",
      "outputs": [
        {
          "name": "",
          "type": "bool"
        }
      ],
      "payable": false,
      "stateMutability": "nonpayable",
      "type": "function"
    },
    {
      "constant": false,
      "inputs": [
        {
          "name": "newOwner",
          "type": "address"
        }
      ],
      "name": "updateOwner",
      "outputs": [
        {
          "name": "",
          "type": "bool"
        }
      ],
      "payable": false,
      "stateMutability": "nonpayable",
      "type": "function"
    },
    {
      "constant": false,
      "inputs": [
        {
          "name": "_minStake",
          "type": "uint256"
        },
        {
          "name": "_maxStakers",
          "type": "uint256"
        }
      ],
      "name": "updateLimits",
      "outputs": [
        {
          "name": "",
          "type": "bool"
        }
      ],
      "payable": false,
      "stateMutability": "nonpayable",
      "type": "function"
    },
    {
      "constant": false,
      "inputs": [
        {
          "name": "member",
          "type": "address"
        },
        {
          "name": "role",
          "type": "uint256"
        },
        {
          "name": "active",
          "type": "bool"
        }
      ],
      "name": "addOrUpdateFoundationMembers",
      "outputs": [
        {
          "name": "",
          "type": "bool"
        }
      ],
      "payable": false,
      "stateMutability": "nonpayable",
      "type": "function"
    },
    {
      "constant": false,
      "inputs": [
        {
          "name": "value",
          "type": "uint256"
        },
        {
          "name": "expiration",
          "type": "uint256"
        },
        {
          "name": "documentURI",
          "type": "bytes"
        }
      ],
      "name": "createRequest",
      "outputs": [
        {
          "name": "",
          "type": "bool"
        }
      ],
      "payable": false,
      "stateMutability": "nonpayable",
      "type": "function"
    },
    {
      "constant": false,
      "inputs": [
        {
          "name": "value",
          "type": "uint256"
        },
        {
          "name": "expiration",
          "type": "uint256"
        },
        {
          "name": "documentURI",
          "type": "bytes"
        }
      ],
      "name": "depositAndCreateRequest",
      "outputs": [
        {
          "name": "",
          "type": "bool"
        }
      ],
      "payable": false,
      "stateMutability": "nonpayable",
      "type": "function"
    },
    {
      "constant": false,
      "inputs": [
        {
          "name": "requestId",
          "type": "uint256"
        },
        {
          "name": "newExpiration",
          "type": "uint256"
        }
      ],
      "name": "extendRequest",
      "outputs": [
        {
          "name": "",
          "type": "bool"
        }
      ],
      "payable": false,
      "stateMutability": "nonpayable",
      "type": "function"
    },
    {
      "constant": false,
      "inputs": [
        {
          "name": "requestId",
          "type": "uint256"
        },
        {
          "name": "amount",
          "type": "uint256"
        }
      ],
      "name": "addFundsToRequest",
      "outputs": [
        {
          "name": "",
          "type": "bool"
        }
      ],
      "payable": false,
      "stateMutability": "nonpayable",
      "type": "function"
    },
    {
      "constant": false,
      "inputs": [
        {
          "name": "requestId",
          "type": "uint256"
        },
        {
          "name": "newExpiration",
          "type": "uint256"
        },
        {
          "name": "amount",
          "type": "uint256"
        }
      ],
      "name": "extendAndAddFundsToRequest",
      "outputs": [],
      "payable": false,
      "stateMutability": "nonpayable",
      "type": "function"
    },
    {
      "constant": false,
      "inputs": [
        {
          "name": "requestId",
          "type": "uint256"
        },
        {
          "name": "endSubmission",
          "type": "uint256"
        },
        {
          "name": "endEvaluation",
          "type": "uint256"
        },
        {
          "name": "newExpiration",
          "type": "uint256"
        }
      ],
      "name": "approveRequest",
      "outputs": [
        {
          "name": "",
          "type": "bool"
        }
      ],
      "payable": false,
      "stateMutability": "nonpayable",
      "type": "function"
    },
    {
      "constant": false,
      "inputs": [
        {
          "name": "requestId",
          "type": "uint256"
        }
      ],
      "name": "rejectRequest",
      "outputs": [
        {
          "name": "",
          "type": "bool"
        }
      ],
      "payable": false,
      "stateMutability": "nonpayable",
      "type": "function"
    },
    {
      "constant": false,
      "inputs": [
        {
          "name": "requestId",
          "type": "uint256"
        }
      ],
      "name": "closeRequest",
      "outputs": [
        {
          "name": "",
          "type": "bool"
        }
      ],
      "payable": false,
      "stateMutability": "nonpayable",
      "type": "function"
    },
    {
      "constant": false,
      "inputs": [
        {
          "name": "requestId",
          "type": "uint256"
        },
        {
          "name": "solutionDocURI",
          "type": "bytes"
        }
      ],
      "name": "createOrUpdateSolutionProposal",
      "outputs": [
        {
          "name": "",
          "type": "bool"
        }
      ],
      "payable": false,
      "stateMutability": "nonpayable",
      "type": "function"
    },
    {
      "constant": false,
      "inputs": [
        {
          "name": "requestId",
          "type": "uint256"
        },
        {
          "name": "solutionSubmitter",
          "type": "address"
        }
      ],
      "name": "vote",
      "outputs": [
        {
          "name": "",
          "type": "bool"
        }
      ],
      "payable": false,
      "stateMutability": "nonpayable",
      "type": "function"
    },
    {
      "constant": false,
      "inputs": [
        {
          "name": "requestId",
          "type": "uint256"
        }
      ],
      "name": "requestClaimBack",
      "outputs": [
        {
          "name": "",
          "type": "bool"
        }
      ],
      "payable": false,
      "stateMutability": "nonpayable",
      "type": "function"
    },
    {
      "constant": false,
      "inputs": [
        {
          "name": "requestId",
          "type": "uint256"
        }
      ],
      "name": "requestClaim",
      "outputs": [
        {
          "name": "",
          "type": "bool"
        }
      ],
      "payable": false,
      "stateMutability": "nonpayable",
      "type": "function"
    },
    {
      "constant": true,
      "inputs": [],
      "name": "getFoundationMemberKeys",
      "outputs": [
        {
          "name": "",
          "type": "address[]"
        }
      ],
      "payable": false,
      "stateMutability": "view",
      "type": "function"
    },
    {
      "constant": true,
      "inputs": [
        {
          "name": "requestId",
          "type": "uint256"
        }
      ],
      "name": "getStakeMembers",
      "outputs": [
        {
          "name": "",
          "type": "address[]"
        }
      ],
      "payable": false,
      "stateMutability": "view",
      "type": "function"
    },
    {
      "constant": true,
      "inputs": [
        {
          "name": "requestId",
          "type": "uint256"
        }
      ],
      "name": "getSolutionSubmitters",
      "outputs": [
        {
          "name": "",
          "type": "address[]"
        }
      ],
      "payable": false,
      "stateMutability": "view",
      "type": "function"
    }
  ],
  "bytecode": "0x608060405234801561001057600080fd5b506040516060806146f683398101806040528101908080519060200190929190805190602001909291908051906020019092919050505082600860006101000a81548173ffffffffffffffffffffffffffffffffffffffff021916908373ffffffffffffffffffffffffffffffffffffffff16021790555033600560006101000a81548173ffffffffffffffffffffffffffffffffffffffff021916908373ffffffffffffffffffffffffffffffffffffffff160217905550600080819055508160038190555080600481905550505050614606806100f06000396000f300608060405260043610610175576000357c0100000000000000000000000000000000000000000000000000000000900463ffffffff16806302d947ef1461017a5780630eaa4767146101df578063168b344f14610242578063212fb71b146102ae57806327e235e3146103305780632d7788db146103875780632e1a7d4d146103cc578063375b3c0a1461041157806339fe7e211461043c5780633c3ff3ef146104d15780634f7ff503146105205780636a84a9851461054b5780637b731f731461057657806381d12c58146105bb578063880cdc31146106cc5780638da5cb5b14610727578063a2240e191461077e578063a7e5c8f0146107cd578063ac6a08de1461083e578063b33bb6a5146108ab578063b6b55f2514610936578063b72f5bf41461097b578063c801b8c0146109bc578063e00b288a14610a3e578063f0282b7f14610a83578063f504b08914610ac8578063f8a880aa14610b35578063fc0c546a14610bca578063fe444e5614610c21575b600080fd5b34801561018657600080fd5b506101c560048036038101908080359060200190929190803573ffffffffffffffffffffffffffffffffffffffff169060200190929190505050610c70565b604051808215151515815260200191505060405180910390f35b3480156101eb57600080fd5b5061022860048036038101908080359060200190929190803590602001909291908035906020019092919080359060200190929190505050610f3e565b604051808215151515815260200191505060405180910390f35b34801561024e57600080fd5b506102576110bd565b6040518080602001828103825283818151815260200191508051906020019060200280838360005b8381101561029a57808201518184015260208101905061027f565b505050509050019250505060405180910390f35b3480156102ba57600080fd5b506102d96004803603810190808035906020019092919050505061114b565b6040518080602001828103825283818151815260200191508051906020019060200280838360005b8381101561031c578082015181840152602081019050610301565b505050509050019250505060405180910390f35b34801561033c57600080fd5b50610371600480360381019080803573ffffffffffffffffffffffffffffffffffffffff1690602001909291905050506113f8565b6040518082815260200191505060405180910390f35b34801561039357600080fd5b506103b260048036038101908080359060200190929190505050611410565b604051808215151515815260200191505060405180910390f35b3480156103d857600080fd5b506103f76004803603810190808035906020019092919050505061152c565b604051808215151515815260200191505060405180910390f35b34801561041d57600080fd5b50610426611725565b6040518082815260200191505060405180910390f35b34801561044857600080fd5b506104b76004803603810190808035906020019092919080359060200190929190803590602001908201803590602001908080601f016020809104026020016040519081016040528093929190818152602001838380828437820191505050505050919291929050505061172b565b604051808215151515815260200191505060405180910390f35b3480156104dd57600080fd5b506105066004803603810190808035906020019092919080359060200190929190505050611bf6565b604051808215151515815260200191505060405180910390f35b34801561052c57600080fd5b50610535612017565b6040518082815260200191505060405180910390f35b34801561055757600080fd5b5061056061201d565b6040518082815260200191505060405180910390f35b34801561058257600080fd5b506105a160048036038101908080359060200190929190505050612023565b604051808215151515815260200191505060405180910390f35b3480156105c757600080fd5b506105e6600480360381019080803590602001909291905050506122cd565b604051808981526020018873ffffffffffffffffffffffffffffffffffffffff1673ffffffffffffffffffffffffffffffffffffffff1681526020018781526020018060200186815260200185815260200184815260200183600481111561064a57fe5b60ff168152602001828103825287818151815260200191508051906020019080838360005b8381101561068a57808201518184015260208101905061066f565b50505050905090810190601f1680156106b75780820380516001836020036101000a031916815260200191505b50995050505050505050505060405180910390f35b3480156106d857600080fd5b5061070d600480360381019080803573ffffffffffffffffffffffffffffffffffffffff1690602001909291905050506123da565b604051808215151515815260200191505060405180910390f35b34801561073357600080fd5b5061073c6124be565b604051808273ffffffffffffffffffffffffffffffffffffffff1673ffffffffffffffffffffffffffffffffffffffff16815260200191505060405180910390f35b34801561078a57600080fd5b506107b360048036038101908080359060200190929190803590602001909291905050506124e4565b604051808215151515815260200191505060405180910390f35b3480156107d957600080fd5b50610824600480360381019080803573ffffffffffffffffffffffffffffffffffffffff1690602001909291908035906020019092919080351515906020019092919050505061255a565b604051808215151515815260200191505060405180910390f35b34801561084a57600080fd5b5061087f600480360381019080803573ffffffffffffffffffffffffffffffffffffffff16906020019092919050505061297e565b604051808481526020018315151515815260200182151515158152602001935050505060405180910390f35b3480156108b757600080fd5b5061091c60048036038101908080359060200190929190803590602001908201803590602001908080601f01602080910402602001604051908101604052809392919081815260200183838082843782019150505050505091929192905050506129c2565b604051808215151515815260200191505060405180910390f35b34801561094257600080fd5b5061096160048036038101908080359060200190929190505050612d3d565b604051808215151515815260200191505060405180910390f35b34801561098757600080fd5b506109ba600480360381019080803590602001909291908035906020019092919080359060200190929190505050612fab565b005b3480156109c857600080fd5b506109e760048036038101908080359060200190929190505050612fda565b6040518080602001828103825283818151815260200191508051906020019060200280838360005b83811015610a2a578082015181840152602081019050610a0f565b505050509050019250505060405180910390f35b348015610a4a57600080fd5b50610a6960048036038101908080359060200190929190505050613287565b604051808215151515815260200191505060405180910390f35b348015610a8f57600080fd5b50610aae60048036038101908080359060200190929190505050613c23565b604051808215151515815260200191505060405180910390f35b348015610ad457600080fd5b50610af360048036038101908080359060200190929190505050613d3c565b604051808273ffffffffffffffffffffffffffffffffffffffff1673ffffffffffffffffffffffffffffffffffffffff16815260200191505060405180910390f35b348015610b4157600080fd5b50610bb06004803603810190808035906020019092919080359060200190929190803590602001908201803590602001908080601f0160208091040260200160405190810160405280939291908181526020018383808284378201915050505050509192919290505050613d7a565b604051808215151515815260200191505060405180910390f35b348015610bd657600080fd5b50610bdf613db1565b604051808273ffffffffffffffffffffffffffffffffffffffff1673ffffffffffffffffffffffffffffffffffffffff16815260200191505060405180910390f35b348015610c2d57600080fd5b50610c566004803603810190808035906020019092919080359060200190929190505050613dd7565b604051808215151515815260200191505060405180910390f35b60008060016000858152602001908152602001600020905060016004811115610c9557fe5b8160070160009054906101000a900460ff166004811115610cb257fe5b141515610cbe57600080fd5b806004015443108015610cd45750806005015443115b8015610ce4575080600601544311155b1515610cef57600080fd5b600760003373ffffffffffffffffffffffffffffffffffffffff1673ffffffffffffffffffffffffffffffffffffffff16815260200190815260200160002060010160009054906101000a900460ff1680610d8b575060008160090160003373ffffffffffffffffffffffffffffffffffffffff1673ffffffffffffffffffffffffffffffffffffffff16815260200190815260200160002054115b1515610d9657600080fd5b80600b0160008473ffffffffffffffffffffffffffffffffffffffff1673ffffffffffffffffffffffffffffffffffffffff16815260200190815260200160002060020160009054906101000a900460ff168015610e2057508273ffffffffffffffffffffffffffffffffffffffff163373ffffffffffffffffffffffffffffffffffffffff1614155b1515610e2b57600080fd5b600181600b0160008573ffffffffffffffffffffffffffffffffffffffff1673ffffffffffffffffffffffffffffffffffffffff16815260200190815260200160002060010160008282540192505081905550610ed88484600760003373ffffffffffffffffffffffffffffffffffffffff1673ffffffffffffffffffffffffffffffffffffffff16815260200190815260200160002060010160009054906101000a900460ff16613ef9565b8273ffffffffffffffffffffffffffffffffffffffff163373ffffffffffffffffffffffffffffffffffffffff16857f3eb39bf09a967b24103c862ecf5070a50f3b20a80a64d1d0f80d4adc5833c96560405160405180910390a4600191505092915050565b600080600760003373ffffffffffffffffffffffffffffffffffffffff1673ffffffffffffffffffffffffffffffffffffffff16815260200190815260200160002060010160009054906101000a900460ff161515610f9c57600080fd5b60016000878152602001908152602001600020905060006004811115610fbe57fe5b8160070160009054906101000a900460ff166004811115610fdb57fe5b141515610fe757600080fd5b8385108015610ff557508284105b8015611005575080600401548310155b151561101057600080fd5b60018160070160006101000a81548160ff0219169083600481111561103157fe5b02179055508481600501819055508381600601819055508281600401819055503373ffffffffffffffffffffffffffffffffffffffff16867f6a7527c1127e57b7178d486b4702a1e61c216676962cbb55209b332a93f5b46687878760405180848152602001838152602001828152602001935050505060405180910390a36001915050949350505050565b6060600680548060200260200160405190810160405280929190818152602001828054801561114157602002820191906000526020600020905b8160009054906101000a900473ffffffffffffffffffffffffffffffffffffffff1673ffffffffffffffffffffffffffffffffffffffff16815260200190600101908083116110f7575b5050505050905090565b6060611155614317565b600160008481526020019081526020016000206101406040519081016040529081600082015481526020016001820160009054906101000a900473ffffffffffffffffffffffffffffffffffffffff1673ffffffffffffffffffffffffffffffffffffffff1673ffffffffffffffffffffffffffffffffffffffff16815260200160028201548152602001600382018054600181600116156101000203166002900480601f0160208091040260200160405190810160405280929190818152602001828054600181600116156101000203166002900480156112785780601f1061124d57610100808354040283529160200191611278565b820191906000526020600020905b81548152906001019060200180831161125b57829003601f168201915b505050505081526020016004820154815260200160058201548152602001600682015481526020016007820160009054906101000a900460ff1660048111156112bd57fe5b60048111156112c857fe5b81526020016008820180548060200260200160405190810160405280929190818152602001828054801561135157602002820191906000526020600020905b8160009054906101000a900473ffffffffffffffffffffffffffffffffffffffff1673ffffffffffffffffffffffffffffffffffffffff1681526020019060010190808311611307575b50505050508152602001600a82018054806020026020016040519081016040528092919081815260200182805480156113df57602002820191906000526020600020905b8160009054906101000a900473ffffffffffffffffffffffffffffffffffffffff1673ffffffffffffffffffffffffffffffffffffffff1681526020019060010190808311611395575b5050505050815250509050806101200151915050919050565b60026020528060005260406000206000915090505481565b600080600760003373ffffffffffffffffffffffffffffffffffffffff1673ffffffffffffffffffffffffffffffffffffffff16815260200190815260200160002060010160009054906101000a900460ff16151561146e57600080fd5b6001600084815260200190815260200160002090506000600481111561149057fe5b8160070160009054906101000a900460ff1660048111156114ad57fe5b1415156114b957600080fd5b60028160070160006101000a81548160ff021916908360048111156114da57fe5b02179055503373ffffffffffffffffffffffffffffffffffffffff16837ece63cc55966b103e4f4cb39f3426cb91718ad4f8eb4ad08c14a7ee749d815760405160405180910390a36001915050919050565b600081600260003373ffffffffffffffffffffffffffffffffffffffff1673ffffffffffffffffffffffffffffffffffffffff168152602001908152602001600020541015151561157c57600080fd5b600860009054906101000a900473ffffffffffffffffffffffffffffffffffffffff1673ffffffffffffffffffffffffffffffffffffffff1663a9059cbb33846040518363ffffffff167c0100000000000000000000000000000000000000000000000000000000028152600401808373ffffffffffffffffffffffffffffffffffffffff1673ffffffffffffffffffffffffffffffffffffffff16815260200182815260200192505050602060405180830381600087803b15801561164157600080fd5b505af1158015611655573d6000803e3d6000fd5b505050506040513d602081101561166b57600080fd5b8101908080519060200190929190505050151561168757600080fd5b6116d982600260003373ffffffffffffffffffffffffffffffffffffffff1673ffffffffffffffffffffffffffffffffffffffff168152602001908152602001600020546142cc90919063ffffffff16565b600260003373ffffffffffffffffffffffffffffffffffffffff1673ffffffffffffffffffffffffffffffffffffffff1681526020019081526020016000208190555060019050919050565b60035481565b6000611735614317565b84600260003373ffffffffffffffffffffffffffffffffffffffff1673ffffffffffffffffffffffffffffffffffffffff168152602001908152602001600020541015151561178357600080fd5b8060016000805481526020019081526020016000206000820151816000015560208201518160010160006101000a81548173ffffffffffffffffffffffffffffffffffffffff021916908373ffffffffffffffffffffffffffffffffffffffff16021790555060408201518160020155606082015181600301908051906020019061180f92919061438c565b506080820151816004015560a0820151816005015560c0820151816006015560e08201518160070160006101000a81548160ff0219169083600481111561185257fe5b021790555061010082015181600801908051906020019061187492919061440c565b5061012082015181600a01908051906020019061189292919061440c565b5090505060005460016000805481526020019081526020016000206000018190555033600160008054815260200190815260200160002060010160006101000a81548173ffffffffffffffffffffffffffffffffffffffff021916908373ffffffffffffffffffffffffffffffffffffffff160217905550846001600080548152602001908152602001600020600201819055508260016000805481526020019081526020016000206003019080519060200190611951929190614496565b50836001600080548152602001908152602001600020600401819055506000600160008054815260200190815260200160002060070160006101000a81548160ff021916908360048111156119a257fe5b02179055506119f985600260003373ffffffffffffffffffffffffffffffffffffffff1673ffffffffffffffffffffffffffffffffffffffff168152602001908152602001600020546142cc90919063ffffffff16565b600260003373ffffffffffffffffffffffffffffffffffffffff1673ffffffffffffffffffffffffffffffffffffffff1681526020019081526020016000208190555084600160008054815260200190815260200160002060090160003373ffffffffffffffffffffffffffffffffffffffff1673ffffffffffffffffffffffffffffffffffffffff1681526020019081526020016000208190555060016000805481526020019081526020016000206008013390806001815401808255809150509060018203906000526020600020016000909192909190916101000a81548173ffffffffffffffffffffffffffffffffffffffff021916908373ffffffffffffffffffffffffffffffffffffffff160217905550503373ffffffffffffffffffffffffffffffffffffffff167fe4940ae2b42ec040756a3ea4c2b2f4e85090b147982955e07be76d7be3036009600080815480929190600101919050558688876040518085815260200184815260200183815260200180602001828103825283818151815260200191508051906020019080838360005b83811015611bad578082015181840152602081019050611b92565b50505050905090810190601f168015611bda5780820380516001836020036101000a031916815260200191505b509550505050505060405180910390a260019150509392505050565b60008082600260003373ffffffffffffffffffffffffffffffffffffffff1673ffffffffffffffffffffffffffffffffffffffff1681526020019081526020016000205410158015611c485750600083115b8015611c5657506003548310155b1515611c6157600080fd5b60016000858152602001908152602001600020905060016004811115611c8357fe5b8160070160009054906101000a900460ff166004811115611ca057fe5b1480611d2e575060006004811115611cb457fe5b8160070160009054906101000a900460ff166004811115611cd157fe5b148015611d2d57503373ffffffffffffffffffffffffffffffffffffffff168160010160009054906101000a900473ffffffffffffffffffffffffffffffffffffffff1673ffffffffffffffffffffffffffffffffffffffff16145b5b1515611d3957600080fd5b806004015443108015611d4f5750806006015443105b1515611d5a57600080fd5b60045481600801805490501080611db2575060008160090160003373ffffffffffffffffffffffffffffffffffffffff1673ffffffffffffffffffffffffffffffffffffffff16815260200190815260200160002054115b1515611dbd57600080fd5b611e0f83600260003373ffffffffffffffffffffffffffffffffffffffff1673ffffffffffffffffffffffffffffffffffffffff168152602001908152602001600020546142cc90919063ffffffff16565b600260003373ffffffffffffffffffffffffffffffffffffffff1673ffffffffffffffffffffffffffffffffffffffff16815260200190815260200160002081905550611e698382600201546142e590919063ffffffff16565b816002018190555060008160090160003373ffffffffffffffffffffffffffffffffffffffff1673ffffffffffffffffffffffffffffffffffffffff168152602001908152602001600020541415611f2457806008013390806001815401808255809150509060018203906000526020600020016000909192909190916101000a81548173ffffffffffffffffffffffffffffffffffffffff021916908373ffffffffffffffffffffffffffffffffffffffff160217905550505b611f78838260090160003373ffffffffffffffffffffffffffffffffffffffff1673ffffffffffffffffffffffffffffffffffffffff168152602001908152602001600020546142e590919063ffffffff16565b8160090160003373ffffffffffffffffffffffffffffffffffffffff1673ffffffffffffffffffffffffffffffffffffffff168152602001908152602001600020819055503373ffffffffffffffffffffffffffffffffffffffff16847fe956662328c81b19ccd3d8666304be39ec1b5fa1e9f004554a5ffaf996011b11856040518082815260200191505060405180910390a3600191505092915050565b60045481565b60005481565b6000806001600084815260200190815260200160002090506000816002015411151561204e57600080fd5b60008160090160003373ffffffffffffffffffffffffffffffffffffffff1673ffffffffffffffffffffffffffffffffffffffff1681526020019081526020016000205411151561209e57600080fd5b8060040154431180156120d85750600160048111156120b957fe5b8160070160009054906101000a900460ff1660048111156120d657fe5b145b8061210957506004808111156120ea57fe5b8160070160009054906101000a900460ff16600481111561210757fe5b145b8061213b57506002600481111561211c57fe5b8160070160009054906101000a900460ff16600481111561213957fe5b145b151561214657600080fd5b6121d98160090160003373ffffffffffffffffffffffffffffffffffffffff1673ffffffffffffffffffffffffffffffffffffffff16815260200190815260200160002054600260003373ffffffffffffffffffffffffffffffffffffffff1673ffffffffffffffffffffffffffffffffffffffff168152602001908152602001600020546142e590919063ffffffff16565b600260003373ffffffffffffffffffffffffffffffffffffffff1673ffffffffffffffffffffffffffffffffffffffff168152602001908152602001600020819055506122748160090160003373ffffffffffffffffffffffffffffffffffffffff1673ffffffffffffffffffffffffffffffffffffffff1681526020019081526020016000205482600201546142cc90919063ffffffff16565b816002018190555060008160090160003373ffffffffffffffffffffffffffffffffffffffff1673ffffffffffffffffffffffffffffffffffffffff168152602001908152602001600020819055506001915050919050565b60016020528060005260406000206000915090508060000154908060010160009054906101000a900473ffffffffffffffffffffffffffffffffffffffff1690806002015490806003018054600181600116156101000203166002900480601f0160208091040260200160405190810160405280929190818152602001828054600181600116156101000203166002900480156123ab5780601f10612380576101008083540402835291602001916123ab565b820191906000526020600020905b81548152906001019060200180831161238e57829003601f168201915b5050505050908060040154908060050154908060060154908060070160009054906101000a900460ff16905088565b60003373ffffffffffffffffffffffffffffffffffffffff16600560009054906101000a900473ffffffffffffffffffffffffffffffffffffffff1673ffffffffffffffffffffffffffffffffffffffff1614151561243857600080fd5b600073ffffffffffffffffffffffffffffffffffffffff168273ffffffffffffffffffffffffffffffffffffffff161415151561247457600080fd5b81600560006101000a81548173ffffffffffffffffffffffffffffffffffffffff021916908373ffffffffffffffffffffffffffffffffffffffff16021790555060019050919050565b600560009054906101000a900473ffffffffffffffffffffffffffffffffffffffff1681565b60003373ffffffffffffffffffffffffffffffffffffffff16600560009054906101000a900473ffffffffffffffffffffffffffffffffffffffff1673ffffffffffffffffffffffffffffffffffffffff1614151561254257600080fd5b82600381905550816004819055506001905092915050565b6000612564614516565b3373ffffffffffffffffffffffffffffffffffffffff16600560009054906101000a900473ffffffffffffffffffffffffffffffffffffffff1673ffffffffffffffffffffffffffffffffffffffff16148061265a57506001600760003373ffffffffffffffffffffffffffffffffffffffff1673ffffffffffffffffffffffffffffffffffffffff168152602001908152602001600020600001541480156126595750600760003373ffffffffffffffffffffffffffffffffffffffff1673ffffffffffffffffffffffffffffffffffffffff16815260200190815260200160002060010160009054906101000a900460ff165b5b151561266557600080fd5b600073ffffffffffffffffffffffffffffffffffffffff168573ffffffffffffffffffffffffffffffffffffffff16141515156126a157600080fd5b60008414806126b05750600184145b15156126bb57600080fd5b600760008673ffffffffffffffffffffffffffffffffffffffff1673ffffffffffffffffffffffffffffffffffffffff16815260200190815260200160002060010160019054906101000a900460ff1615156127785760068590806001815401808255809150509060018203906000526020600020016000909192909190916101000a81548173ffffffffffffffffffffffffffffffffffffffff021916908373ffffffffffffffffffffffffffffffffffffffff160217905550505b80600760008773ffffffffffffffffffffffffffffffffffffffff1673ffffffffffffffffffffffffffffffffffffffff1681526020019081526020016000206000820151816000015560208201518160010160006101000a81548160ff02191690831515021790555060408201518160010160016101000a81548160ff02191690831515021790555090505083600760008773ffffffffffffffffffffffffffffffffffffffff1673ffffffffffffffffffffffffffffffffffffffff1681526020019081526020016000206000018190555082600760008773ffffffffffffffffffffffffffffffffffffffff1673ffffffffffffffffffffffffffffffffffffffff16815260200190815260200160002060010160006101000a81548160ff0219169083151502179055506001600760008773ffffffffffffffffffffffffffffffffffffffff1673ffffffffffffffffffffffffffffffffffffffff16815260200190815260200160002060010160016101000a81548160ff0219169083151502179055503373ffffffffffffffffffffffffffffffffffffffff168573ffffffffffffffffffffffffffffffffffffffff167f04bacb862a32831fafcf5025e9a32500574cb00a09743ee037a0d93f60f47063868660405180838152602001821515151581526020019250505060405180910390a360019150509392505050565b60076020528060005260406000206000915090508060000154908060010160009054906101000a900460ff16908060010160019054906101000a900460ff16905083565b6000806129cd61453c565b600160008681526020019081526020016000209150600160048111156129ef57fe5b8260070160009054906101000a900460ff166004811115612a0c57fe5b141515612a1857600080fd5b816004015443108015612a2f575081600501544311155b1515612a3a57600080fd5b81600b0160003373ffffffffffffffffffffffffffffffffffffffff1673ffffffffffffffffffffffffffffffffffffffff16815260200190815260200160002060020160009054906101000a900460ff161515612afb5781600a013390806001815401808255809150509060018203906000526020600020016000909192909190916101000a81548173ffffffffffffffffffffffffffffffffffffffff021916908373ffffffffffffffffffffffffffffffffffffffff160217905550505b8082600b0160003373ffffffffffffffffffffffffffffffffffffffff1673ffffffffffffffffffffffffffffffffffffffff1681526020019081526020016000206000820151816000019080519060200190612b5992919061438c565b506020820151816001015560408201518160020160006101000a81548160ff02191690831515021790555060608201518160020160016101000a81548160ff02191690831515021790555060808201518160020160026101000a81548160ff0219169083151502179055509050508382600b0160003373ffffffffffffffffffffffffffffffffffffffff1673ffffffffffffffffffffffffffffffffffffffff1681526020019081526020016000206000019080519060200190612c1f929190614496565b50600182600b0160003373ffffffffffffffffffffffffffffffffffffffff1673ffffffffffffffffffffffffffffffffffffffff16815260200190815260200160002060020160006101000a81548160ff0219169083151502179055503373ffffffffffffffffffffffffffffffffffffffff16857f289c99c8edfb41417e57324d8994c839d5c6cddacca30c18b6d24047617e8b28866040518080602001828103825283818151815260200191508051906020019080838360005b83811015612cf7578082015181840152602081019050612cdc565b50505050905090810190601f168015612d245780820380516001836020036101000a031916815260200191505b509250505060405180910390a360019250505092915050565b6000600860009054906101000a900473ffffffffffffffffffffffffffffffffffffffff1673ffffffffffffffffffffffffffffffffffffffff166323b872dd3330856040518463ffffffff167c0100000000000000000000000000000000000000000000000000000000028152600401808473ffffffffffffffffffffffffffffffffffffffff1673ffffffffffffffffffffffffffffffffffffffff1681526020018373ffffffffffffffffffffffffffffffffffffffff1673ffffffffffffffffffffffffffffffffffffffff1681526020018281526020019350505050602060405180830381600087803b158015612e3857600080fd5b505af1158015612e4c573d6000803e3d6000fd5b505050506040513d6020811015612e6257600080fd5b81019080805190602001909291905050501515612f0d576040517f08c379a00000000000000000000000000000000000000000000000000000000081526004018080602001828103825260288152602001807f556e61626c6520746f207472616e7366657220746f6b656e20746f207468652081526020017f636f6e747261637400000000000000000000000000000000000000000000000081525060400191505060405180910390fd5b612f5f82600260003373ffffffffffffffffffffffffffffffffffffffff1673ffffffffffffffffffffffffffffffffffffffff168152602001908152602001600020546142e590919063ffffffff16565b600260003373ffffffffffffffffffffffffffffffffffffffff1673ffffffffffffffffffffffffffffffffffffffff1681526020019081526020016000208190555060019050919050565b612fb58383613dd7565b1515612fc057600080fd5b612fca8382611bf6565b1515612fd557600080fd5b505050565b6060612fe4614317565b600160008481526020019081526020016000206101406040519081016040529081600082015481526020016001820160009054906101000a900473ffffffffffffffffffffffffffffffffffffffff1673ffffffffffffffffffffffffffffffffffffffff1673ffffffffffffffffffffffffffffffffffffffff16815260200160028201548152602001600382018054600181600116156101000203166002900480601f0160208091040260200160405190810160405280929190818152602001828054600181600116156101000203166002900480156131075780601f106130dc57610100808354040283529160200191613107565b820191906000526020600020905b8154815290600101906020018083116130ea57829003601f168201915b505050505081526020016004820154815260200160058201548152602001600682015481526020016007820160009054906101000a900460ff16600481111561314c57fe5b600481111561315757fe5b8152602001600882018054806020026020016040519081016040528092919081815260200182805480156131e057602002820191906000526020600020905b8160009054906101000a900473ffffffffffffffffffffffffffffffffffffffff1673ffffffffffffffffffffffffffffffffffffffff1681526020019060010190808311613196575b50505050508152602001600a820180548060200260200160405190810160405280929190818152602001828054801561326e57602002820191906000526020600020905b8160009054906101000a900473ffffffffffffffffffffffffffffffffffffffff1673ffffffffffffffffffffffffffffffffffffffff1681526020019060010190808311613224575b5050505050815250509050806101000151915050919050565b600080600080600080600080600160008a81526020019081526020016000209150600160048111156132b557fe5b8260070160009054906101000a900460ff1660048111156132d257fe5b1480156132e3575060008260020154115b15156132ee57600080fd5b8160060154431180156133045750816004015443105b151561330f57600080fd5b81600b0160003373ffffffffffffffffffffffffffffffffffffffff1673ffffffffffffffffffffffffffffffffffffffff16815260200190815260200160002060020160009054906101000a900460ff1680156133bc575081600b0160003373ffffffffffffffffffffffffffffffffffffffff1673ffffffffffffffffffffffffffffffffffffffff16815260200190815260200160002060020160029054906101000a900460ff16155b15156133c757600080fd5b81600c0160008073ffffffffffffffffffffffffffffffffffffffff1673ffffffffffffffffffffffffffffffffffffffff16815260200190815260200160002060008073ffffffffffffffffffffffffffffffffffffffff1673ffffffffffffffffffffffffffffffffffffffff168152602001908152602001600020549650600090505b8160080180549050811015613ab35760009350816008018181548110151561347157fe5b9060005260206000200160009054906101000a900473ffffffffffffffffffffffffffffffffffffffff1692508160090160008473ffffffffffffffffffffffffffffffffffffffff1673ffffffffffffffffffffffffffffffffffffffff1681526020019081526020016000205495506000861115613aa657600082600c0160008573ffffffffffffffffffffffffffffffffffffffff1673ffffffffffffffffffffffffffffffffffffffff16815260200190815260200160002060003373ffffffffffffffffffffffffffffffffffffffff1673ffffffffffffffffffffffffffffffffffffffff168152602001908152602001600020541180156135f75750600082600c0160008573ffffffffffffffffffffffffffffffffffffffff1673ffffffffffffffffffffffffffffffffffffffff16815260200190815260200160002060008073ffffffffffffffffffffffffffffffffffffffff1673ffffffffffffffffffffffffffffffffffffffff16815260200190815260200160002054115b156137125761370b82600c0160008573ffffffffffffffffffffffffffffffffffffffff1673ffffffffffffffffffffffffffffffffffffffff16815260200190815260200160002060008573ffffffffffffffffffffffffffffffffffffffff1673ffffffffffffffffffffffffffffffffffffffff1681526020019081526020016000205483600c0160008673ffffffffffffffffffffffffffffffffffffffff1673ffffffffffffffffffffffffffffffffffffffff16815260200190815260200160002060008073ffffffffffffffffffffffffffffffffffffffff1673ffffffffffffffffffffffffffffffffffffffff168152602001908152602001600020546142cc90919063ffffffff16565b93506138c4565b6000871180156137a05750600082600c0160008073ffffffffffffffffffffffffffffffffffffffff1673ffffffffffffffffffffffffffffffffffffffff16815260200190815260200160002060003373ffffffffffffffffffffffffffffffffffffffff1673ffffffffffffffffffffffffffffffffffffffff16815260200190815260200160002054115b801561382a5750600082600c0160008573ffffffffffffffffffffffffffffffffffffffff1673ffffffffffffffffffffffffffffffffffffffff16815260200190815260200160002060008073ffffffffffffffffffffffffffffffffffffffff1673ffffffffffffffffffffffffffffffffffffffff16815260200190815260200160002054145b156138c3576138c082600c0160008573ffffffffffffffffffffffffffffffffffffffff1673ffffffffffffffffffffffffffffffffffffffff16815260200190815260200160002060008573ffffffffffffffffffffffffffffffffffffffff1673ffffffffffffffffffffffffffffffffffffffff16815260200190815260200160002054886142cc90919063ffffffff16565b93505b5b6000841115613aa5576138e0848761430190919063ffffffff16565b9550613936868360090160008673ffffffffffffffffffffffffffffffffffffffff1673ffffffffffffffffffffffffffffffffffffffff168152602001908152602001600020546142cc90919063ffffffff16565b8260090160008573ffffffffffffffffffffffffffffffffffffffff1673ffffffffffffffffffffffffffffffffffffffff1681526020019081526020016000208190555061398e86866142e590919063ffffffff16565b9450613a22600183600c0160008673ffffffffffffffffffffffffffffffffffffffff1673ffffffffffffffffffffffffffffffffffffffff16815260200190815260200160002060008673ffffffffffffffffffffffffffffffffffffffff1673ffffffffffffffffffffffffffffffffffffffff168152602001908152602001600020546142e590919063ffffffff16565b82600c0160008573ffffffffffffffffffffffffffffffffffffffff1673ffffffffffffffffffffffffffffffffffffffff16815260200190815260200160002060008573ffffffffffffffffffffffffffffffffffffffff1673ffffffffffffffffffffffffffffffffffffffff168152602001908152602001600020819055505b5b808060010191505061344d565b613aca8583600201546142cc90919063ffffffff16565b8260020181905550613b2485600260003373ffffffffffffffffffffffffffffffffffffffff1673ffffffffffffffffffffffffffffffffffffffff168152602001908152602001600020546142e590919063ffffffff16565b600260003373ffffffffffffffffffffffffffffffffffffffff1673ffffffffffffffffffffffffffffffffffffffff16815260200190815260200160002081905550600182600b0160003373ffffffffffffffffffffffffffffffffffffffff1673ffffffffffffffffffffffffffffffffffffffff16815260200190815260200160002060020160026101000a81548160ff0219169083151502179055503373ffffffffffffffffffffffffffffffffffffffff16897fa77334abceb70f6b14676b12b5f95ea51e94727165c2ef31d7c4bbffb0d6c633876040518082815260200191505060405180910390a36001975050505050505050919050565b600080600760003373ffffffffffffffffffffffffffffffffffffffff1673ffffffffffffffffffffffffffffffffffffffff16815260200190815260200160002060010160009054906101000a900460ff161515613c8157600080fd5b60016000848152602001908152602001600020905060016004811115613ca357fe5b8160070160009054906101000a900460ff166004811115613cc057fe5b141515613ccc57600080fd5b60048160070160006101000a81548160ff02191690836004811115613ced57fe5b02179055503373ffffffffffffffffffffffffffffffffffffffff16837f33e0ef9a1b13c585505b41f1828c57935eb2a491b550de25345243e25d20b9bf60405160405180910390a350919050565b600681815481101515613d4b57fe5b906000526020600020016000915054906101000a900473ffffffffffffffffffffffffffffffffffffffff1681565b6000613d8584612d3d565b1515613d9057600080fd5b613d9b84848461172b565b1515613da657600080fd5b600190509392505050565b600860009054906101000a900473ffffffffffffffffffffffffffffffffffffffff1681565b6000806001600085815260200190815260200160002090508060010160009054906101000a900473ffffffffffffffffffffffffffffffffffffffff1673ffffffffffffffffffffffffffffffffffffffff163373ffffffffffffffffffffffffffffffffffffffff16141515613e4d57600080fd5b60006004811115613e5a57fe5b8160070160009054906101000a900460ff166004811115613e7757fe5b141515613e8357600080fd5b80600401548310151515613e9657600080fd5b8281600401819055503373ffffffffffffffffffffffffffffffffffffffff16847fbbc4dd3bce62c5b771c77df4171d005b37753117e94003de29886c3debb1ccf0856040518082815260200191505060405180910390a3600191505092915050565b6000600160008581526020019081526020016000209050818015613f6c575080600b0160008473ffffffffffffffffffffffffffffffffffffffff1673ffffffffffffffffffffffffffffffffffffffff16815260200190815260200160002060020160019054906101000a900460ff16155b156140e057600181600c0160008073ffffffffffffffffffffffffffffffffffffffff1673ffffffffffffffffffffffffffffffffffffffff16815260200190815260200160002060008073ffffffffffffffffffffffffffffffffffffffff1673ffffffffffffffffffffffffffffffffffffffff16815260200190815260200160002060008282540192505081905550600181600c0160008073ffffffffffffffffffffffffffffffffffffffff1673ffffffffffffffffffffffffffffffffffffffff16815260200190815260200160002060008573ffffffffffffffffffffffffffffffffffffffff1673ffffffffffffffffffffffffffffffffffffffff16815260200190815260200160002081905550600181600b0160008573ffffffffffffffffffffffffffffffffffffffff1673ffffffffffffffffffffffffffffffffffffffff16815260200190815260200160002060020160016101000a81548160ff0219169083151502179055505b60008160090160003373ffffffffffffffffffffffffffffffffffffffff1673ffffffffffffffffffffffffffffffffffffffff168152602001908152602001600020541180156141af5750600081600c0160003373ffffffffffffffffffffffffffffffffffffffff1673ffffffffffffffffffffffffffffffffffffffff16815260200190815260200160002060008573ffffffffffffffffffffffffffffffffffffffff1673ffffffffffffffffffffffffffffffffffffffff16815260200190815260200160002054145b156142c657600181600c0160003373ffffffffffffffffffffffffffffffffffffffff1673ffffffffffffffffffffffffffffffffffffffff16815260200190815260200160002060008073ffffffffffffffffffffffffffffffffffffffff1673ffffffffffffffffffffffffffffffffffffffff16815260200190815260200160002060008282540192505081905550600181600c0160003373ffffffffffffffffffffffffffffffffffffffff1673ffffffffffffffffffffffffffffffffffffffff16815260200190815260200160002060008573ffffffffffffffffffffffffffffffffffffffff1673ffffffffffffffffffffffffffffffffffffffff168152602001908152602001600020819055505b50505050565b60008282111515156142da57fe5b818303905092915050565b600081830190508281101515156142f857fe5b80905092915050565b6000818381151561430e57fe5b04905092915050565b6101406040519081016040528060008152602001600073ffffffffffffffffffffffffffffffffffffffff16815260200160008152602001606081526020016000815260200160008152602001600081526020016000600481111561437857fe5b815260200160608152602001606081525090565b828054600181600116156101000203166002900490600052602060002090601f016020900481019282601f106143cd57805160ff19168380011785556143fb565b828001600101855582156143fb579182015b828111156143fa5782518255916020019190600101906143df565b5b5090506144089190614572565b5090565b828054828255906000526020600020908101928215614485579160200282015b828111156144845782518260006101000a81548173ffffffffffffffffffffffffffffffffffffffff021916908373ffffffffffffffffffffffffffffffffffffffff1602179055509160200191906001019061442c565b5b5090506144929190614597565b5090565b828054600181600116156101000203166002900490600052602060002090601f016020900481019282601f106144d757805160ff1916838001178555614505565b82800160010185558215614505579182015b828111156145045782518255916020019190600101906144e9565b5b5090506145129190614572565b5090565b606060405190810160405280600081526020016000151581526020016000151581525090565b60a06040519081016040528060608152602001600081526020016000151581526020016000151581526020016000151581525090565b61459491905b80821115614590576000816000905550600101614578565b5090565b90565b6145d791905b808211156145d357600081816101000a81549073ffffffffffffffffffffffffffffffffffffffff02191690555060010161459d565b5090565b905600a165627a7a723058208cbe1474db5cf274316614bd2304ee4a3dd557a7085a7893acc5f539ec5af02e0029",
  "source": "pragma solidity ^0.4.24;\r\n\r\nimport \"openzeppelin-solidity/contracts/token/ERC20/ERC20.sol\";\r\nimport \"openzeppelin-solidity/contracts/math/SafeMath.sol\";\r\n\r\ncontract ServiceRequest {\r\n    \r\n    using SafeMath for uint256;\r\n    \r\n    struct Request {\r\n        uint256 requestId;\r\n        address requester;\r\n        uint256 totalFund;\r\n        bytes documentURI;\r\n        \r\n        uint256 expiration;\r\n        uint256 endSubmission;\r\n        uint256 endEvaluation;\r\n        \r\n        RequestStatus status;\r\n        \r\n        address[] stakeMembers;\r\n        mapping(address => uint256) funds;\r\n        \r\n        address[] submitters;\r\n        mapping(address => Solution) submittedSols;\r\n        \r\n        mapping(address => mapping(address => uint256)) votes;\r\n    }\r\n\r\n    // Open -> Rejected\r\n    // Open -> Approved -> Completed (TODO: Yet to get the logic for completed state - checking it is needed)\r\n    // Open -> Approved -> Closed\r\n    enum RequestStatus { Open, Approved, Rejected, Completed, Closed }\r\n    \r\n    struct Solution {\r\n        bytes solutionDocURI;\r\n        uint256 totalVotes;\r\n        \r\n        bool isSubmitted;\r\n        bool isShortlisted;\r\n        bool isClaimed;\r\n    }\r\n    \r\n    uint256 public nextRequestId;\r\n    mapping (uint256 => Request) public requests;\r\n    mapping (address => uint256) public balances;\r\n    \r\n    uint256 public minStake;\r\n    uint256 public maxStakers;\r\n\r\n    address public owner;\r\n    \r\n    address[] public memberKeys;\r\n    struct Member {\r\n        uint role; // 0-Normal member, 1-> Admin Member who can add other members\r\n        bool status; // True -> Active, False -> InActive/Deleted\r\n        bool exists; // To check the existstance of the Member\r\n    }\r\n    mapping(address => Member) public foundationMembers;\r\n \r\n    ERC20 public token; // Address of token contract\r\n    \r\n\r\n    // Events\r\n    event AddFoundationMember(address indexed member, uint role, bool status, address indexed actor);\r\n    event CreateRequest(uint256 requestId, address indexed requester, uint256 expiration, uint256 amount, bytes documentURI);\r\n    event ExtendRequest(uint256 indexed requestId, address indexed requester, uint256 expiration);\r\n    event ApproveRequest(uint256 indexed requestId, address indexed approver, uint256 endSubmission, uint256 endEvaluation, uint256 expiration);\r\n    event FundRequest(uint256 indexed requestId, address indexed staker, uint256 amount);\r\n    event AddSolutionRequest(uint256 indexed requestId, address indexed submitter, bytes solutionDocURI);\r\n    event VoteRequest(uint256 indexed requestId, address indexed voter, address indexed submitter);\r\n    event ClaimRequest(uint256 indexed requestId, address indexed submitter, uint256 amount);\r\n    event CloseRequest(uint256 indexed requestId, address indexed actor);\r\n    event RejectRequest(uint256 indexed requestId, address indexed actor);\r\n\r\n    constructor (address _token, uint256 _minStake, uint256 _maxStakers)\r\n    public\r\n    {\r\n        token = ERC20(_token);\r\n        owner = msg.sender;\r\n        nextRequestId = 0;\r\n        minStake = _minStake;\r\n        maxStakers = _maxStakers;\r\n    }\r\n  \r\n    function deposit(uint256 value) \r\n    public\r\n    returns(bool) \r\n    {\r\n        require(token.transferFrom(msg.sender, this, value), \"Unable to transfer token to the contract\"); \r\n        balances[msg.sender] = balances[msg.sender].add(value);\r\n        return true;\r\n    }\r\n    \r\n    function withdraw(uint256 value)\r\n    public\r\n    returns(bool)\r\n    {\r\n        require(balances[msg.sender] >= value);\r\n        require(token.transfer(msg.sender, value));\r\n        balances[msg.sender] = balances[msg.sender].sub(value);\r\n        return true;\r\n    }\r\n    \r\n    function updateOwner(address newOwner) public returns(bool) {\r\n        require(owner == msg.sender);\r\n        require(newOwner != address(0));\r\n        \r\n        owner = newOwner;\r\n        \r\n        return true;\r\n    }\r\n\r\n    function updateLimits(uint256 _minStake, uint256 _maxStakers) public returns(bool) {\r\n        require(owner == msg.sender);\r\n        minStake = _minStake;\r\n        maxStakers = _maxStakers;\r\n        return true;\r\n    }\r\n    \r\n    function addOrUpdateFoundationMembers(address member, uint role, bool active) public returns (bool) {\r\n        \r\n        require(owner == msg.sender || (foundationMembers[msg.sender].role == 1 && foundationMembers[msg.sender].status));\r\n        require(member != address(0));\r\n        require(role == 0 || role == 1);\r\n        \r\n        Member memory mem;\r\n        if(!foundationMembers[member].exists) {\r\n            memberKeys.push(member);\r\n        }\r\n        foundationMembers[member] = mem;\r\n        foundationMembers[member].role = role;\r\n        foundationMembers[member].status = active;\r\n        foundationMembers[member].exists = true;\r\n        \r\n        emit AddFoundationMember(member, role, active, msg.sender);\r\n\r\n        return true;\r\n    }\r\n    \r\n    function createRequest(uint256 value, uint256 expiration, bytes documentURI) \r\n    public\r\n    returns(bool) \r\n    {\r\n        require(balances[msg.sender] >= value);\r\n        \r\n        Request memory req;\r\n        requests[nextRequestId] = req;\r\n        \r\n        requests[nextRequestId].requestId = nextRequestId;\r\n        requests[nextRequestId].requester = msg.sender;\r\n        requests[nextRequestId].totalFund = value;\r\n        requests[nextRequestId].documentURI = documentURI;\r\n        requests[nextRequestId].expiration = expiration;\r\n        requests[nextRequestId].status = RequestStatus.Open;\r\n\r\n        balances[msg.sender] = balances[msg.sender].sub(value);\r\n\r\n        requests[nextRequestId].funds[msg.sender] = value;\r\n        requests[nextRequestId].stakeMembers.push(msg.sender);\r\n        \r\n        emit CreateRequest(nextRequestId++, msg.sender, expiration, value, documentURI);\r\n\r\n        return true;\r\n    }\r\n\r\n    function depositAndCreateRequest(uint256 value, uint256 expiration, bytes documentURI)\r\n    public\r\n    returns(bool)\r\n    {\r\n        require(deposit(value));\r\n        require(createRequest(value, expiration, documentURI));\r\n        return true;\r\n    }\r\n\r\n\r\n    /// the sender can extend the expiration of the request at any time\r\n    function extendRequest(uint256 requestId, uint256 newExpiration) \r\n    public \r\n    returns(bool)\r\n    {\r\n        Request storage req = requests[requestId];\r\n\r\n        require(msg.sender == req.requester);\r\n        require(req.status == RequestStatus.Open);\r\n        require(newExpiration >= req.expiration);\r\n\r\n        req.expiration = newExpiration;\r\n\r\n        emit ExtendRequest(requestId, msg.sender, newExpiration);\r\n\r\n        return true;\r\n    }\r\n    \r\n    // Anyone could add funds to the service request\r\n    function addFundsToRequest(uint256 requestId, uint256 amount)\r\n    public\r\n    returns(bool)\r\n    {\r\n        require(balances[msg.sender] >= amount && amount > 0 && amount >= minStake);\r\n        \r\n        Request storage req = requests[requestId];\r\n        \r\n        // Request should be Approved - Means in Progress\r\n        require(req.status == RequestStatus.Approved || (req.status == RequestStatus.Open && req.requester == msg.sender));\r\n        \r\n        // Request should not be expired\r\n        require(block.number < req.expiration && block.number < req.endEvaluation);\r\n\r\n        // Check for Max Stakers only for new stake \r\n        require(req.stakeMembers.length < maxStakers || req.funds[msg.sender] > 0);\r\n\r\n        //tranfser amount from sender to the Service Request\r\n        balances[msg.sender] = balances[msg.sender].sub(amount);\r\n        req.totalFund = req.totalFund.add(amount);\r\n        \r\n        // Adding funds first time check\r\n        if(req.funds[msg.sender] == 0){\r\n            req.stakeMembers.push(msg.sender);\r\n        } // else member already exists\r\n\r\n        //Update the respective request funds\r\n        req.funds[msg.sender] = req.funds[msg.sender].add(amount);\r\n        \r\n        emit FundRequest(requestId, msg.sender, amount);\r\n\r\n        return true;\r\n    }\r\n\r\n    function extendAndAddFundsToRequest(uint256 requestId, uint256 newExpiration, uint256 amount)\r\n    public\r\n    {\r\n        require(extendRequest(requestId, newExpiration));\r\n        require(addFundsToRequest(requestId, amount));\r\n    }\r\n    \r\n    function approveRequest(uint256 requestId, uint256 endSubmission, uint256 endEvaluation, uint256 newExpiration) public returns(bool) {\r\n        \r\n        // Should be foundation Member\r\n        require(foundationMembers[msg.sender].status);\r\n        \r\n        Request storage req = requests[requestId];\r\n        \r\n        // Request should be active\r\n        require(req.status == RequestStatus.Open);\r\n        \r\n        // Request should not be expired -- We should allow this\r\n        //require(req.expiration > block.number);\r\n        require(endSubmission < endEvaluation && endEvaluation < newExpiration && newExpiration >= req.expiration );\r\n        \r\n        req.status = RequestStatus.Approved;\r\n        req.endSubmission = endSubmission;\r\n        req.endEvaluation = endEvaluation;\r\n        req.expiration = newExpiration;\r\n        \r\n        emit ApproveRequest(requestId, msg.sender, endSubmission, endEvaluation, newExpiration);\r\n\r\n        return true;\r\n    }\r\n    \r\n    function rejectRequest(uint256 requestId) public returns(bool) {\r\n        \r\n        // Should be foundation Member\r\n        require(foundationMembers[msg.sender].status);\r\n        \r\n        Request storage req = requests[requestId];\r\n        \r\n        // Request should be active\r\n        require(req.status == RequestStatus.Open);\r\n        \r\n        // Change the status of the Request to Rejected\r\n        req.status = RequestStatus.Rejected;\r\n\r\n        // Stake Members to needs to claim by themselves\r\n        //settleFundsAndChangeStatus(requestId, RequestStatus.Rejected);\r\n        \r\n        emit RejectRequest(requestId, msg.sender);\r\n\r\n        return true;\r\n    }\r\n\r\n    function closeRequest(uint256 requestId) public returns(bool) {\r\n        \r\n        // Should be ative foundation Member\r\n        require(foundationMembers[msg.sender].status);\r\n        \r\n        Request storage req = requests[requestId];\r\n        \r\n        // Request should be active\r\n        require(req.status == RequestStatus.Approved);  \r\n        \r\n        // Change the status of the Request to Closed\r\n        req.status = RequestStatus.Closed;\r\n        \r\n        // Stake Members to needs to claim by themselves\r\n        //settleFundsAndChangeStatus(requestId, RequestStatus.Closed);\r\n        \r\n        emit CloseRequest(requestId, msg.sender);\r\n    }\r\n    \r\n    // TBD: Function to be deleted as Claim will be done explicitly\r\n    function settleFundsAndChangeStatus(uint256 requestId, RequestStatus finalStatus) internal returns(bool) {\r\n        \r\n        Request storage req = requests[requestId];\r\n        uint256 amount;\r\n        for(uint256 i=0; i<req.stakeMembers.length; i++) {\r\n            amount = req.funds[req.stakeMembers[i]];\r\n            req.funds[req.stakeMembers[i]] = req.funds[req.stakeMembers[i]].sub(amount);\r\n            balances[req.stakeMembers[i]] = balances[req.stakeMembers[i]].add(amount);\r\n        }\r\n        req.totalFund = 0;\r\n        req.status = finalStatus;\r\n        \r\n        return true;\r\n    }\r\n    \r\n    function createOrUpdateSolutionProposal(uint256 requestId, bytes solutionDocURI)\r\n    public\r\n    returns(bool)\r\n    {\r\n        Request storage req = requests[requestId];\r\n\r\n        // Request should be active\r\n        require(req.status == RequestStatus.Approved);\r\n        \r\n        // Request should not be expired\r\n        require(block.number < req.expiration && block.number <= req.endSubmission);\r\n        \r\n        Solution memory sol;\r\n\r\n        // Check if already user submitted the solution\r\n        if(!req.submittedSols[msg.sender].isSubmitted) {\r\n            req.submitters.push(msg.sender);\r\n        }\r\n        // Create or Update the Submitted Solution\r\n        req.submittedSols[msg.sender] = sol;\r\n        req.submittedSols[msg.sender].solutionDocURI = solutionDocURI;\r\n        req.submittedSols[msg.sender].isSubmitted = true;\r\n        \r\n        emit AddSolutionRequest(requestId, msg.sender, solutionDocURI);\r\n\r\n        return true;\r\n        \r\n    }\r\n\r\n    // Only users who has stake can vote\r\n    // Foundation members can vote => Shortlist\r\n    function vote(uint256 requestId, address solutionSubmitter) public returns (bool) {\r\n        \r\n        Request storage req = requests[requestId];\r\n        \r\n        // Request should be active\r\n        require(req.status == RequestStatus.Approved);\r\n        \r\n        // Request should not be expired\r\n        require(block.number < req.expiration && block.number > req.endSubmission && block.number <= req.endEvaluation);\r\n        \r\n        // Should be foundation Member or Staking Member to Vote\r\n        require(foundationMembers[msg.sender].status || req.funds[msg.sender] > 0);\r\n        \r\n        // Check for solution Submitter status and cannot for own submission\r\n        require(req.submittedSols[solutionSubmitter].isSubmitted && msg.sender != solutionSubmitter);\r\n        \r\n        req.submittedSols[solutionSubmitter].totalVotes += 1;\r\n        \r\n        submitVote(requestId, solutionSubmitter, foundationMembers[msg.sender].status);\r\n        \r\n        emit VoteRequest(requestId, msg.sender, solutionSubmitter);\r\n        \r\n        return true;\r\n    }\r\n\r\n    function submitVote(uint256 requestId, address solutionSubmitter, bool isFromFoundation) \r\n    internal \r\n    {\r\n        \r\n        Request storage req = requests[requestId];\r\n\r\n        if(isFromFoundation && !req.submittedSols[solutionSubmitter].isShortlisted) {\r\n            // 0x0 contains foundation shortlisted solutions\r\n            req.votes[address(0)][address(0)] += 1;\r\n            req.votes[address(0)][solutionSubmitter] = 1;\r\n            req.submittedSols[solutionSubmitter].isShortlisted = true;\r\n        }\r\n        \r\n        if(req.funds[msg.sender] > 0 && req.votes[msg.sender][solutionSubmitter] == 0)\r\n        {\r\n            req.votes[msg.sender][address(0)] += 1;\r\n            req.votes[msg.sender][solutionSubmitter] = 1;\r\n        }\r\n    }\r\n    \r\n    function requestClaimBack(uint256 requestId) public returns (bool) {\r\n\r\n        Request storage req = requests[requestId];\r\n        \r\n        // Request should have funds\r\n        require(req.totalFund > 0);\r\n\r\n        // Should have stake\r\n        require(req.funds[msg.sender] > 0);\r\n\r\n        // Approved request should be expiried or Request is closed / rejected\r\n        require((block.number > req.expiration && req.status == RequestStatus.Approved) || req.status == RequestStatus.Closed || req.status == RequestStatus.Rejected);\r\n        \r\n        balances[msg.sender] = balances[msg.sender].add(req.funds[msg.sender]);\r\n        req.totalFund = req.totalFund.sub(req.funds[msg.sender]);\r\n        req.funds[msg.sender] = 0;\r\n        \r\n        return true;\r\n    }\r\n\r\n    function requestClaim(uint256 requestId) \r\n    public\r\n    returns (bool)\r\n    {\r\n        uint256 fundationVotes;\r\n        uint256 userStake;\r\n        uint256 totalClaim;\r\n        uint256 userVotes;\r\n        address stakeMember;\r\n        Request storage req = requests[requestId];\r\n        \r\n        // Request should be active and should have funds\r\n        require(req.status == RequestStatus.Approved && req.totalFund > 0);\r\n        \r\n        // Request should complete the eveluation and should not expire\r\n        require(block.number > req.endEvaluation && block.number < req.expiration);\r\n        \r\n        // Should be Solution Submitter Only and should have atleast one vote\r\n        require(req.submittedSols[msg.sender].isSubmitted && !req.submittedSols[msg.sender].isClaimed);\r\n        \r\n        fundationVotes = req.votes[address(0)][address(0)];\r\n        for(uint256 i=0; i<req.stakeMembers.length;i++) {\r\n            userVotes = 0;\r\n            stakeMember = req.stakeMembers[i];\r\n            userStake = req.funds[stakeMember];\r\n\r\n            if(userStake > 0) {\r\n                if(req.votes[stakeMember][msg.sender] > 0 && req.votes[stakeMember][address(0)] > 0) {\r\n                    userVotes = req.votes[stakeMember][address(0)].sub(req.votes[stakeMember][stakeMember]);\r\n                }\r\n                else if(fundationVotes > 0 && req.votes[address(0)][msg.sender] > 0 && req.votes[stakeMember][address(0)] == 0) {\r\n                    userVotes = fundationVotes.sub(req.votes[stakeMember][stakeMember]);               \r\n                }\r\n                if(userVotes > 0) {\r\n                    userStake = userStake.div(userVotes);\r\n                    req.funds[stakeMember] = req.funds[stakeMember].sub(userStake);\r\n                    totalClaim = totalClaim.add(userStake);\r\n                    req.votes[stakeMember][stakeMember] = req.votes[stakeMember][stakeMember].add(1);\r\n                }\r\n            }\r\n        }\r\n        \r\n        req.totalFund = req.totalFund.sub(totalClaim);\r\n        balances[msg.sender] = balances[msg.sender].add(totalClaim);\r\n        req.submittedSols[msg.sender].isClaimed = true;\r\n\r\n        emit ClaimRequest(requestId, msg.sender, totalClaim);\r\n        \r\n        return true;\r\n    }\r\n\r\n\r\n    // Getters\r\n    function getFoundationMemberKeys() public view returns (address[]) {\r\n        return memberKeys;\r\n    }\r\n\r\n    function getStakeMembers(uint256 requestId) public view returns (address[]) {\r\n        Request memory req = requests[requestId];\r\n        return req.stakeMembers;\r\n    }\r\n\r\n    function getSolutionSubmitters(uint256 requestId) public view returns (address[]) {\r\n        Request memory req = requests[requestId];\r\n        return req.submitters;\r\n    }\r\n  \r\n}",
  "sourcePath": "C:\\MyProjects\\BlockchainSamples\\DrizzleSample\\drizzle-box-master\\contracts\\ServiceRequest.sol",
  "compiler": {
    "name": "solc",
    "version": "0.4.24+commit.e67f0147.Emscripten.clang"
  },
  "schemaVersion": "2.0.1",
  "updatedAt": "2019-01-28T14:03:58.081Z"
}